{
  "_format": "hh3-artifact-1",
  "contractName": "OrbittMarket",
  "sourceName": "contracts/OrbittMarket.sol",
  "abi": [
    {
      "inputs": [],
      "stateMutability": "nonpayable",
      "type": "constructor"
    },
    {
      "inputs": [
        {
          "internalType": "address",
          "name": "owner",
          "type": "address"
        }
      ],
      "name": "OwnableInvalidOwner",
      "type": "error"
    },
    {
      "inputs": [
        {
          "internalType": "address",
          "name": "account",
          "type": "address"
        }
      ],
      "name": "OwnableUnauthorizedAccount",
      "type": "error"
    },
    {
      "inputs": [],
      "name": "ReentrancyGuardReentrantCall",
      "type": "error"
    },
    {
      "anonymous": false,
      "inputs": [
        {
          "indexed": true,
          "internalType": "uint256",
          "name": "jobId",
          "type": "uint256"
        },
        {
          "indexed": true,
          "internalType": "uint256",
          "name": "agentTokenId",
          "type": "uint256"
        }
      ],
      "name": "BidAssigned",
      "type": "event"
    },
    {
      "anonymous": false,
      "inputs": [
        {
          "indexed": true,
          "internalType": "uint256",
          "name": "jobId",
          "type": "uint256"
        },
        {
          "indexed": true,
          "internalType": "address",
          "name": "recipient",
          "type": "address"
        },
        {
          "indexed": false,
          "internalType": "uint256",
          "name": "amount",
          "type": "uint256"
        }
      ],
      "name": "EscrowReleased",
      "type": "event"
    },
    {
      "anonymous": false,
      "inputs": [
        {
          "indexed": true,
          "internalType": "uint256",
          "name": "jobId",
          "type": "uint256"
        },
        {
          "indexed": true,
          "internalType": "address",
          "name": "caller",
          "type": "address"
        }
      ],
      "name": "JobDisputed",
      "type": "event"
    },
    {
      "anonymous": false,
      "inputs": [
        {
          "indexed": true,
          "internalType": "uint256",
          "name": "jobId",
          "type": "uint256"
        },
        {
          "indexed": true,
          "internalType": "address",
          "name": "poster",
          "type": "address"
        },
        {
          "indexed": true,
          "internalType": "address",
          "name": "paymentToken",
          "type": "address"
        },
        {
          "indexed": false,
          "internalType": "uint256",
          "name": "amount",
          "type": "uint256"
        },
        {
          "indexed": false,
          "internalType": "bytes32",
          "name": "specHash",
          "type": "bytes32"
        },
        {
          "indexed": false,
          "internalType": "uint256",
          "name": "deadline",
          "type": "uint256"
        }
      ],
      "name": "JobPosted",
      "type": "event"
    },
    {
      "anonymous": false,
      "inputs": [
        {
          "indexed": true,
          "internalType": "address",
          "name": "newKeeper",
          "type": "address"
        }
      ],
      "name": "KeeperUpdated",
      "type": "event"
    },
    {
      "anonymous": false,
      "inputs": [
        {
          "indexed": true,
          "internalType": "uint256",
          "name": "jobId",
          "type": "uint256"
        },
        {
          "indexed": false,
          "internalType": "bytes32",
          "name": "outputHash",
          "type": "bytes32"
        },
        {
          "indexed": false,
          "internalType": "bytes",
          "name": "computeProof",
          "type": "bytes"
        }
      ],
      "name": "OutputSubmitted",
      "type": "event"
    },
    {
      "anonymous": false,
      "inputs": [
        {
          "indexed": true,
          "internalType": "address",
          "name": "previousOwner",
          "type": "address"
        },
        {
          "indexed": true,
          "internalType": "address",
          "name": "newOwner",
          "type": "address"
        }
      ],
      "name": "OwnershipTransferred",
      "type": "event"
    },
    {
      "anonymous": false,
      "inputs": [
        {
          "indexed": true,
          "internalType": "address",
          "name": "newRegistry",
          "type": "address"
        }
      ],
      "name": "RegistryUpdated",
      "type": "event"
    },
    {
      "inputs": [
        {
          "internalType": "uint256",
          "name": "jobId",
          "type": "uint256"
        },
        {
          "internalType": "uint256",
          "name": "agentTokenId",
          "type": "uint256"
        }
      ],
      "name": "assignBid",
      "outputs": [],
      "stateMutability": "nonpayable",
      "type": "function"
    },
    {
      "inputs": [
        {
          "internalType": "uint256",
          "name": "jobId",
          "type": "uint256"
        }
      ],
      "name": "disputeJob",
      "outputs": [],
      "stateMutability": "nonpayable",
      "type": "function"
    },
    {
      "inputs": [],
      "name": "jobCount",
      "outputs": [
        {
          "internalType": "uint256",
          "name": "",
          "type": "uint256"
        }
      ],
      "stateMutability": "view",
      "type": "function"
    },
    {
      "inputs": [
        {
          "internalType": "uint256",
          "name": "",
          "type": "uint256"
        }
      ],
      "name": "jobs",
      "outputs": [
        {
          "internalType": "uint256",
          "name": "id",
          "type": "uint256"
        },
        {
          "internalType": "address",
          "name": "poster",
          "type": "address"
        },
        {
          "internalType": "uint256",
          "name": "agentTokenId",
          "type": "uint256"
        },
        {
          "internalType": "address",
          "name": "paymentToken",
          "type": "address"
        },
        {
          "internalType": "uint256",
          "name": "escrowAmount",
          "type": "uint256"
        },
        {
          "internalType": "bytes32",
          "name": "jobSpecHash",
          "type": "bytes32"
        },
        {
          "internalType": "bytes32",
          "name": "outputHash",
          "type": "bytes32"
        },
        {
          "internalType": "enum OrbittMarket.JobStatus",
          "name": "status",
          "type": "uint8"
        },
        {
          "internalType": "uint256",
          "name": "deadline",
          "type": "uint256"
        }
      ],
      "stateMutability": "view",
      "type": "function"
    },
    {
      "inputs": [],
      "name": "keeper",
      "outputs": [
        {
          "internalType": "address",
          "name": "",
          "type": "address"
        }
      ],
      "stateMutability": "view",
      "type": "function"
    },
    {
      "inputs": [],
      "name": "owner",
      "outputs": [
        {
          "internalType": "address",
          "name": "",
          "type": "address"
        }
      ],
      "stateMutability": "view",
      "type": "function"
    },
    {
      "inputs": [
        {
          "internalType": "address",
          "name": "paymentToken",
          "type": "address"
        },
        {
          "internalType": "uint256",
          "name": "amount",
          "type": "uint256"
        },
        {
          "internalType": "bytes32",
          "name": "specHash",
          "type": "bytes32"
        },
        {
          "internalType": "uint256",
          "name": "deadline",
          "type": "uint256"
        }
      ],
      "name": "postJob",
      "outputs": [
        {
          "internalType": "uint256",
          "name": "jobId",
          "type": "uint256"
        }
      ],
      "stateMutability": "nonpayable",
      "type": "function"
    },
    {
      "inputs": [],
      "name": "registry",
      "outputs": [
        {
          "internalType": "contract IOrbittRegistry",
          "name": "",
          "type": "address"
        }
      ],
      "stateMutability": "view",
      "type": "function"
    },
    {
      "inputs": [
        {
          "internalType": "uint256",
          "name": "jobId",
          "type": "uint256"
        }
      ],
      "name": "releaseEscrow",
      "outputs": [],
      "stateMutability": "nonpayable",
      "type": "function"
    },
    {
      "inputs": [],
      "name": "renounceOwnership",
      "outputs": [],
      "stateMutability": "nonpayable",
      "type": "function"
    },
    {
      "inputs": [
        {
          "internalType": "address",
          "name": "newKeeper",
          "type": "address"
        }
      ],
      "name": "setKeeper",
      "outputs": [],
      "stateMutability": "nonpayable",
      "type": "function"
    },
    {
      "inputs": [
        {
          "internalType": "address",
          "name": "newRegistry",
          "type": "address"
        }
      ],
      "name": "setRegistry",
      "outputs": [],
      "stateMutability": "nonpayable",
      "type": "function"
    },
    {
      "inputs": [
        {
          "internalType": "uint256",
          "name": "jobId",
          "type": "uint256"
        },
        {
          "internalType": "bytes32",
          "name": "outputHash",
          "type": "bytes32"
        },
        {
          "internalType": "bytes",
          "name": "computeProof",
          "type": "bytes"
        }
      ],
      "name": "submitOutput",
      "outputs": [],
      "stateMutability": "nonpayable",
      "type": "function"
    },
    {
      "inputs": [
        {
          "internalType": "address",
          "name": "newOwner",
          "type": "address"
        }
      ],
      "name": "transferOwnership",
      "outputs": [],
      "stateMutability": "nonpayable",
      "type": "function"
    }
  ],
  "bytecode": "0x608060405234801561000f575f5ffd5b50335f73ffffffffffffffffffffffffffffffffffffffff168173ffffffffffffffffffffffffffffffffffffffff1603610081575f6040517f1e4fbdf7000000000000000000000000000000000000000000000000000000008152600401610078919061022c565b60405180910390fd5b610090816100fa60201b60201c565b5060016100af6100a46101bb60201b60201c565b6101e460201b60201c565b5f01819055503360045f6101000a81548173ffffffffffffffffffffffffffffffffffffffff021916908373ffffffffffffffffffffffffffffffffffffffff160217905550610245565b5f5f5f9054906101000a900473ffffffffffffffffffffffffffffffffffffffff169050815f5f6101000a81548173ffffffffffffffffffffffffffffffffffffffff021916908373ffffffffffffffffffffffffffffffffffffffff1602179055508173ffffffffffffffffffffffffffffffffffffffff168173ffffffffffffffffffffffffffffffffffffffff167f8be0079c531659141344cd1fd0a4f28419497f9722a3daafe3b4186f6b6457e060405160405180910390a35050565b5f7f9b779b17422d0df92223018b32b4d1fa46e071723d6817e2486d003becc55f005f1b905090565b5f819050919050565b5f73ffffffffffffffffffffffffffffffffffffffff82169050919050565b5f610216826101ed565b9050919050565b6102268161020c565b82525050565b5f60208201905061023f5f83018461021d565b92915050565b6128a0806102525f395ff3fe608060405234801561000f575f5ffd5b50600436106100e8575f3560e01c806397b0ab7e1161008a578063d93d9beb11610064578063d93d9beb14610216578063ed65316414610232578063ee627cf01461024e578063f2fde38b1461027e576100e8565b806397b0ab7e146101c0578063a91ee0dc146101dc578063aced1661146101f8576100e8565b8063715018a6116100c6578063715018a61461015e578063748747e6146101685780637b103999146101845780638da5cb5b146101a2576100e8565b8063180aedf3146100ec5780634c5d8a0f146101245780636b4f286314610142575b5f5ffd5b6101066004803603810190610101919061176a565b61029a565b60405161011b9998979695949392919061186e565b60405180910390f35b61012c61032e565b60405161013991906118f9565b60405180910390f35b61015c6004803603810190610157919061199d565b610334565b005b610166610538565b005b610182600480360381019061017d9190611a38565b61054b565b005b61018c610647565b6040516101999190611abe565b60405180910390f35b6101aa61066c565b6040516101b79190611ad7565b60405180910390f35b6101da60048036038101906101d59190611af0565b610693565b005b6101f660048036038101906101f19190611a38565b610850565b005b61020061094c565b60405161020d9190611ad7565b60405180910390f35b610230600480360381019061022b919061176a565b610971565b005b61024c6004803603810190610247919061176a565b610b4e565b005b61026860048036038101906102639190611b2e565b610e9a565b60405161027591906118f9565b60405180910390f35b61029860048036038101906102939190611a38565b61120c565b005b6001602052805f5260405f205f91509050805f015490806001015f9054906101000a900473ffffffffffffffffffffffffffffffffffffffff1690806002015490806003015f9054906101000a900473ffffffffffffffffffffffffffffffffffffffff1690806004015490806005015490806006015490806007015f9054906101000a900460ff16908060080154905089565b60025481565b5f61033e85611290565b905060016004811115610354576103536117fb565b5b816007015f9054906101000a900460ff166004811115610377576103766117fb565b5b146103b7576040517f08c379a00000000000000000000000000000000000000000000000000000000081526004016103ae90611bec565b60405180910390fd5b5f8160020154036103fd576040517f08c379a00000000000000000000000000000000000000000000000000000000081526004016103f490611c54565b60405180910390fd5b5f5f1b8403610441576040517f08c379a000000000000000000000000000000000000000000000000000000000815260040161043890611cbc565b60405180910390fd5b5f61044f8260020154611330565b90508073ffffffffffffffffffffffffffffffffffffffff163373ffffffffffffffffffffffffffffffffffffffff16146104bf576040517f08c379a00000000000000000000000000000000000000000000000000000000081526004016104b690611d24565b60405180910390fd5b8482600601819055506003826007015f6101000a81548160ff021916908360048111156104ef576104ee6117fb565b5b0217905550857f5545e28ed4276995a35d62b86c155936654ae9f09b3d834e4fe89228370bc7dd86868660405161052893929190611d9c565b60405180910390a2505050505050565b610540611515565b6105495f61159c565b565b610553611515565b5f73ffffffffffffffffffffffffffffffffffffffff168173ffffffffffffffffffffffffffffffffffffffff16036105c1576040517f08c379a00000000000000000000000000000000000000000000000000000000081526004016105b890611e16565b60405180910390fd5b8060045f6101000a81548173ffffffffffffffffffffffffffffffffffffffff021916908373ffffffffffffffffffffffffffffffffffffffff1602179055508073ffffffffffffffffffffffffffffffffffffffff167f0425bcd291db1d48816f2a98edc7ecaf6dd5c64b973d9e4b3b6b750763dc6c2e60405160405180910390a250565b60035f9054906101000a900473ffffffffffffffffffffffffffffffffffffffff1681565b5f5f5f9054906101000a900473ffffffffffffffffffffffffffffffffffffffff16905090565b5f81036106d5576040517f08c379a00000000000000000000000000000000000000000000000000000000081526004016106cc90611e7e565b60405180910390fd5b5f6106df83611290565b9050806001015f9054906101000a900473ffffffffffffffffffffffffffffffffffffffff1673ffffffffffffffffffffffffffffffffffffffff163373ffffffffffffffffffffffffffffffffffffffff1614610772576040517f08c379a000000000000000000000000000000000000000000000000000000000815260040161076990611ee6565b60405180910390fd5b5f6004811115610785576107846117fb565b5b816007015f9054906101000a900460ff1660048111156107a8576107a76117fb565b5b146107e8576040517f08c379a00000000000000000000000000000000000000000000000000000000081526004016107df90611f4e565b60405180910390fd5b8181600201819055506001816007015f6101000a81548160ff02191690836004811115610818576108176117fb565b5b021790555081837f44c4065c1971f34c670244ec037c6e202571e5cfa05121af0dbb70312950fa8e60405160405180910390a3505050565b610858611515565b5f73ffffffffffffffffffffffffffffffffffffffff168173ffffffffffffffffffffffffffffffffffffffff16036108c6576040517f08c379a00000000000000000000000000000000000000000000000000000000081526004016108bd90611fb6565b60405180910390fd5b8060035f6101000a81548173ffffffffffffffffffffffffffffffffffffffff021916908373ffffffffffffffffffffffffffffffffffffffff1602179055508073ffffffffffffffffffffffffffffffffffffffff167fd6ceddf6d2a22f21c7c81675c518004eff43bc5c8a6fc32a0b748e69d58671cd60405160405180910390a250565b60045f9054906101000a900473ffffffffffffffffffffffffffffffffffffffff1681565b5f61097b82611290565b9050806001015f9054906101000a900473ffffffffffffffffffffffffffffffffffffffff1673ffffffffffffffffffffffffffffffffffffffff163373ffffffffffffffffffffffffffffffffffffffff161480610a26575060045f9054906101000a900473ffffffffffffffffffffffffffffffffffffffff1673ffffffffffffffffffffffffffffffffffffffff163373ffffffffffffffffffffffffffffffffffffffff16145b610a65576040517f08c379a0000000000000000000000000000000000000000000000000000000008152600401610a5c90612044565b60405180910390fd5b600480811115610a7857610a776117fb565b5b816007015f9054906101000a900460ff166004811115610a9b57610a9a6117fb565b5b03610adb576040517f08c379a0000000000000000000000000000000000000000000000000000000008152600401610ad2906120ac565b60405180910390fd5b6004816007015f6101000a81548160ff02191690836004811115610b0257610b016117fb565b5b02179055503373ffffffffffffffffffffffffffffffffffffffff16827e7a04c23fac86b9f00290f402ccec895256f0b46ad331c80038b783acbfe41960405160405180910390a35050565b60045f9054906101000a900473ffffffffffffffffffffffffffffffffffffffff1673ffffffffffffffffffffffffffffffffffffffff163373ffffffffffffffffffffffffffffffffffffffff1614610bdd576040517f08c379a0000000000000000000000000000000000000000000000000000000008152600401610bd490612114565b60405180910390fd5b610be561165d565b5f610bef82611290565b905060036004811115610c0557610c046117fb565b5b816007015f9054906101000a900460ff166004811115610c2857610c276117fb565b5b14610c68576040517f08c379a0000000000000000000000000000000000000000000000000000000008152600401610c5f9061217c565b60405180910390fd5b5f816004015411610cae576040517f08c379a0000000000000000000000000000000000000000000000000000000008152600401610ca5906121e4565b60405180910390fd5b5f73ffffffffffffffffffffffffffffffffffffffff16816003015f9054906101000a900473ffffffffffffffffffffffffffffffffffffffff1673ffffffffffffffffffffffffffffffffffffffff1603610d3f576040517f08c379a0000000000000000000000000000000000000000000000000000000008152600401610d369061224c565b60405180910390fd5b5f610d4d8260020154611330565b90505f826004015490505f8360040181905550826003015f9054906101000a900473ffffffffffffffffffffffffffffffffffffffff1673ffffffffffffffffffffffffffffffffffffffff1663a9059cbb83836040518363ffffffff1660e01b8152600401610dbe92919061226a565b6020604051808303815f875af1158015610dda573d5f5f3e3d5ffd5b505050506040513d601f19601f82011682018060405250810190610dfe91906122c6565b610e3d576040517f08c379a0000000000000000000000000000000000000000000000000000000008152600401610e349061233b565b60405180910390fd5b8173ffffffffffffffffffffffffffffffffffffffff16847f6244ed823ca6be0f11bc890c3fafcf3c29cb23420c14243642e930b5e07e6d0a83604051610e8491906118f9565b60405180910390a3505050610e9761167f565b50565b5f610ea361165d565b5f73ffffffffffffffffffffffffffffffffffffffff168573ffffffffffffffffffffffffffffffffffffffff1603610f11576040517f08c379a0000000000000000000000000000000000000000000000000000000008152600401610f08906123a3565b60405180910390fd5b5f8411610f53576040517f08c379a0000000000000000000000000000000000000000000000000000000008152600401610f4a9061240b565b60405180910390fd5b5f5f1b8303610f97576040517f08c379a0000000000000000000000000000000000000000000000000000000008152600401610f8e90612473565b60405180910390fd5b428211610fd9576040517f08c379a0000000000000000000000000000000000000000000000000000000008152600401610fd0906124db565b60405180910390fd5b60025f8154610fe790612526565b91905081905590505f60015f8381526020019081526020015f20905081815f018190555033816001015f6101000a81548173ffffffffffffffffffffffffffffffffffffffff021916908373ffffffffffffffffffffffffffffffffffffffff16021790555085816003015f6101000a81548173ffffffffffffffffffffffffffffffffffffffff021916908373ffffffffffffffffffffffffffffffffffffffff1602179055508481600401819055508381600501819055505f816007015f6101000a81548160ff021916908360048111156110c7576110c66117fb565b5b02179055508281600801819055508573ffffffffffffffffffffffffffffffffffffffff166323b872dd3330886040518463ffffffff1660e01b81526004016111129392919061256d565b6020604051808303815f875af115801561112e573d5f5f3e3d5ffd5b505050506040513d601f19601f8201168201806040525081019061115291906122c6565b611191576040517f08c379a000000000000000000000000000000000000000000000000000000000815260040161118890612612565b60405180910390fd5b8573ffffffffffffffffffffffffffffffffffffffff163373ffffffffffffffffffffffffffffffffffffffff16837f085340d92833870a5c0d9c1096d5246dcf882afb2e3e84d5064f7d502b6dd2b68888886040516111f393929190612630565b60405180910390a45061120461167f565b949350505050565b611214611515565b5f73ffffffffffffffffffffffffffffffffffffffff168173ffffffffffffffffffffffffffffffffffffffff1603611284575f6040517f1e4fbdf700000000000000000000000000000000000000000000000000000000815260040161127b9190611ad7565b60405180910390fd5b61128d8161159c565b50565b5f5f82036112d3576040517f08c379a00000000000000000000000000000000000000000000000000000000081526004016112ca906126af565b60405180910390fd5b60015f8381526020019081526020015f2090505f815f01540361132b576040517f08c379a000000000000000000000000000000000000000000000000000000000815260040161132290612717565b60405180910390fd5b919050565b5f5f8203611373576040517f08c379a000000000000000000000000000000000000000000000000000000000815260040161136a90611e7e565b60405180910390fd5b5f73ffffffffffffffffffffffffffffffffffffffff1660035f9054906101000a900473ffffffffffffffffffffffffffffffffffffffff1673ffffffffffffffffffffffffffffffffffffffff1603611402576040517f08c379a00000000000000000000000000000000000000000000000000000000081526004016113f99061277f565b60405180910390fd5b5f60035f9054906101000a900473ffffffffffffffffffffffffffffffffffffffff1673ffffffffffffffffffffffffffffffffffffffff16636352211e846040518263ffffffff1660e01b815260040161145d91906118f9565b602060405180830381865afa158015611478573d5f5f3e3d5ffd5b505050506040513d601f19601f8201168201806040525081019061149c91906127b1565b90505f73ffffffffffffffffffffffffffffffffffffffff168173ffffffffffffffffffffffffffffffffffffffff160361150c576040517f08c379a00000000000000000000000000000000000000000000000000000000081526004016115039061284c565b60405180910390fd5b80915050919050565b61151d611699565b73ffffffffffffffffffffffffffffffffffffffff1661153b61066c565b73ffffffffffffffffffffffffffffffffffffffff161461159a5761155e611699565b6040517f118cdaa70000000000000000000000000000000000000000000000000000000081526004016115919190611ad7565b60405180910390fd5b565b5f5f5f9054906101000a900473ffffffffffffffffffffffffffffffffffffffff169050815f5f6101000a81548173ffffffffffffffffffffffffffffffffffffffff021916908373ffffffffffffffffffffffffffffffffffffffff1602179055508173ffffffffffffffffffffffffffffffffffffffff168173ffffffffffffffffffffffffffffffffffffffff167f8be0079c531659141344cd1fd0a4f28419497f9722a3daafe3b4186f6b6457e060405160405180910390a35050565b6116656116a0565b60026116776116726116e1565b61170a565b5f0181905550565b600161169161168c6116e1565b61170a565b5f0181905550565b5f33905090565b6116a8611713565b156116df576040517f3ee5aeb500000000000000000000000000000000000000000000000000000000815260040160405180910390fd5b565b5f7f9b779b17422d0df92223018b32b4d1fa46e071723d6817e2486d003becc55f005f1b905090565b5f819050919050565b5f60026117266117216116e1565b61170a565b5f015414905090565b5f5ffd5b5f5ffd5b5f819050919050565b61174981611737565b8114611753575f5ffd5b50565b5f8135905061176481611740565b92915050565b5f6020828403121561177f5761177e61172f565b5b5f61178c84828501611756565b91505092915050565b61179e81611737565b82525050565b5f73ffffffffffffffffffffffffffffffffffffffff82169050919050565b5f6117cd826117a4565b9050919050565b6117dd816117c3565b82525050565b5f819050919050565b6117f5816117e3565b82525050565b7f4e487b71000000000000000000000000000000000000000000000000000000005f52602160045260245ffd5b60058110611839576118386117fb565b5b50565b5f81905061184982611828565b919050565b5f6118588261183c565b9050919050565b6118688161184e565b82525050565b5f610120820190506118825f83018c611795565b61188f602083018b6117d4565b61189c604083018a611795565b6118a960608301896117d4565b6118b66080830188611795565b6118c360a08301876117ec565b6118d060c08301866117ec565b6118dd60e083018561185f565b6118eb610100830184611795565b9a9950505050505050505050565b5f60208201905061190c5f830184611795565b92915050565b61191b816117e3565b8114611925575f5ffd5b50565b5f8135905061193681611912565b92915050565b5f5ffd5b5f5ffd5b5f5ffd5b5f5f83601f84011261195d5761195c61193c565b5b8235905067ffffffffffffffff81111561197a57611979611940565b5b60208301915083600182028301111561199657611995611944565b5b9250929050565b5f5f5f5f606085870312156119b5576119b461172f565b5b5f6119c287828801611756565b94505060206119d387828801611928565b935050604085013567ffffffffffffffff8111156119f4576119f3611733565b5b611a0087828801611948565b925092505092959194509250565b611a17816117c3565b8114611a21575f5ffd5b50565b5f81359050611a3281611a0e565b92915050565b5f60208284031215611a4d57611a4c61172f565b5b5f611a5a84828501611a24565b91505092915050565b5f819050919050565b5f611a86611a81611a7c846117a4565b611a63565b6117a4565b9050919050565b5f611a9782611a6c565b9050919050565b5f611aa882611a8d565b9050919050565b611ab881611a9e565b82525050565b5f602082019050611ad15f830184611aaf565b92915050565b5f602082019050611aea5f8301846117d4565b92915050565b5f5f60408385031215611b0657611b0561172f565b5b5f611b1385828601611756565b9250506020611b2485828601611756565b9150509250929050565b5f5f5f5f60808587031215611b4657611b4561172f565b5b5f611b5387828801611a24565b9450506020611b6487828801611756565b9350506040611b7587828801611928565b9250506060611b8687828801611756565b91505092959194509250565b5f82825260208201905092915050565b7f4f72626974744d61726b65743a206e6f742061737369676e65640000000000005f82015250565b5f611bd6601a83611b92565b9150611be182611ba2565b602082019050919050565b5f6020820190508181035f830152611c0381611bca565b9050919050565b7f4f72626974744d61726b65743a206e6f206167656e74000000000000000000005f82015250565b5f611c3e601683611b92565b9150611c4982611c0a565b602082019050919050565b5f6020820190508181035f830152611c6b81611c32565b9050919050565b7f4f72626974744d61726b65743a20656d707479206f75747075740000000000005f82015250565b5f611ca6601a83611b92565b9150611cb182611c72565b602082019050919050565b5f6020820190508181035f830152611cd381611c9a565b9050919050565b7f4f72626974744d61726b65743a206167656e74206f6e6c7900000000000000005f82015250565b5f611d0e601883611b92565b9150611d1982611cda565b602082019050919050565b5f6020820190508181035f830152611d3b81611d02565b9050919050565b5f82825260208201905092915050565b828183375f83830152505050565b5f601f19601f8301169050919050565b5f611d7b8385611d42565b9350611d88838584611d52565b611d9183611d60565b840190509392505050565b5f604082019050611daf5f8301866117ec565b8181036020830152611dc2818486611d70565b9050949350505050565b7f4f72626974744d61726b65743a207a65726f206b6565706572000000000000005f82015250565b5f611e00601983611b92565b9150611e0b82611dcc565b602082019050919050565b5f6020820190508181035f830152611e2d81611df4565b9050919050565b7f4f72626974744d61726b65743a207a65726f206167656e7420746f6b656e00005f82015250565b5f611e68601e83611b92565b9150611e7382611e34565b602082019050919050565b5f6020820190508181035f830152611e9581611e5c565b9050919050565b7f4f72626974744d61726b65743a20706f73746572206f6e6c79000000000000005f82015250565b5f611ed0601983611b92565b9150611edb82611e9c565b602082019050919050565b5f6020820190508181035f830152611efd81611ec4565b9050919050565b7f4f72626974744d61726b65743a20696e76616c696420737461747573000000005f82015250565b5f611f38601c83611b92565b9150611f4382611f04565b602082019050919050565b5f6020820190508181035f830152611f6581611f2c565b9050919050565b7f4f72626974744d61726b65743a207a65726f20726567697374727900000000005f82015250565b5f611fa0601b83611b92565b9150611fab82611f6c565b602082019050919050565b5f6020820190508181035f830152611fcd81611f94565b9050919050565b7f4f72626974744d61726b65743a20756e617574686f72697a65642064697370755f8201527f7465000000000000000000000000000000000000000000000000000000000000602082015250565b5f61202e602283611b92565b915061203982611fd4565b604082019050919050565b5f6020820190508181035f83015261205b81612022565b9050919050565b7f4f72626974744d61726b65743a20616c726561647920646973707574656400005f82015250565b5f612096601e83611b92565b91506120a182612062565b602082019050919050565b5f6020820190508181035f8301526120c38161208a565b9050919050565b7f4f72626974744d61726b65743a206b6565706572206f6e6c79000000000000005f82015250565b5f6120fe601983611b92565b9150612109826120ca565b602082019050919050565b5f6020820190508181035f83015261212b816120f2565b9050919050565b7f4f72626974744d61726b65743a206e6f7420636f6d706c6574650000000000005f82015250565b5f612166601a83611b92565b915061217182612132565b602082019050919050565b5f6020820190508181035f8301526121938161215a565b9050919050565b7f4f72626974744d61726b65743a206e6f20657363726f770000000000000000005f82015250565b5f6121ce601783611b92565b91506121d98261219a565b602082019050919050565b5f6020820190508181035f8301526121fb816121c2565b9050919050565b7f4f72626974744d61726b65743a20746f6b656e206d697373696e6700000000005f82015250565b5f612236601b83611b92565b915061224182612202565b602082019050919050565b5f6020820190508181035f8301526122638161222a565b9050919050565b5f60408201905061227d5f8301856117d4565b61228a6020830184611795565b9392505050565b5f8115159050919050565b6122a581612291565b81146122af575f5ffd5b50565b5f815190506122c08161229c565b92915050565b5f602082840312156122db576122da61172f565b5b5f6122e8848285016122b2565b91505092915050565b7f4f72626974744d61726b65743a2072656c65617365206661696c6564000000005f82015250565b5f612325601c83611b92565b9150612330826122f1565b602082019050919050565b5f6020820190508181035f83015261235281612319565b9050919050565b7f4f72626974744d61726b65743a207a65726f20746f6b656e00000000000000005f82015250565b5f61238d601883611b92565b915061239882612359565b602082019050919050565b5f6020820190508181035f8301526123ba81612381565b9050919050565b7f4f72626974744d61726b65743a207a65726f20657363726f77000000000000005f82015250565b5f6123f5601983611b92565b9150612400826123c1565b602082019050919050565b5f6020820190508181035f830152612422816123e9565b9050919050565b7f4f72626974744d61726b65743a20656d707479207370656300000000000000005f82015250565b5f61245d601883611b92565b915061246882612429565b602082019050919050565b5f6020820190508181035f83015261248a81612451565b9050919050565b7f4f72626974744d61726b65743a20646561646c696e6520696e207061737400005f82015250565b5f6124c5601e83611b92565b91506124d082612491565b602082019050919050565b5f6020820190508181035f8301526124f2816124b9565b9050919050565b7f4e487b71000000000000000000000000000000000000000000000000000000005f52601160045260245ffd5b5f61253082611737565b91507fffffffffffffffffffffffffffffffffffffffffffffffffffffffffffffffff8203612562576125616124f9565b5b600182019050919050565b5f6060820190506125805f8301866117d4565b61258d60208301856117d4565b61259a6040830184611795565b949350505050565b7f4f72626974744d61726b65743a20657363726f77207472616e736665722066615f8201527f696c656400000000000000000000000000000000000000000000000000000000602082015250565b5f6125fc602483611b92565b9150612607826125a2565b604082019050919050565b5f6020820190508181035f830152612629816125f0565b9050919050565b5f6060820190506126435f830186611795565b61265060208301856117ec565b61265d6040830184611795565b949350505050565b7f4f72626974744d61726b65743a20696e76616c696420696400000000000000005f82015250565b5f612699601883611b92565b91506126a482612665565b602082019050919050565b5f6020820190508181035f8301526126c68161268d565b9050919050565b7f4f72626974744d61726b65743a206a6f62206d697373696e67000000000000005f82015250565b5f612701601983611b92565b915061270c826126cd565b602082019050919050565b5f6020820190508181035f83015261272e816126f5565b9050919050565b7f4f72626974744d61726b65743a20726567697374727920756e736574000000005f82015250565b5f612769601c83611b92565b915061277482612735565b602082019050919050565b5f6020820190508181035f8301526127968161275d565b9050919050565b5f815190506127ab81611a0e565b92915050565b5f602082840312156127c6576127c561172f565b5b5f6127d38482850161279d565b91505092915050565b7f4f72626974744d61726b65743a206167656e74206f776e6572206d697373696e5f8201527f6700000000000000000000000000000000000000000000000000000000000000602082015250565b5f612836602183611b92565b9150612841826127dc565b604082019050919050565b5f6020820190508181035f8301526128638161282a565b905091905056fea264697066735822122027e1fc5fca6803240171f81c26284776721cf52755ead7658168df2037d5708764736f6c634300081c0033",
  "linkReferences": {},
  "deployedLinkReferences": {},
  "immutableReferences": {},
  "inputSourceName": "project/contracts/OrbittMarket.sol",
  "buildInfoId": "solc-0_8_28-3f6cd5b4a797263b6ed7fb5557b4bc551605d618"
}