{
  "_format": "hh3-artifact-1",
  "contractName": "OrbittSubnameRegistrar",
  "sourceName": "contracts/OrbittSubnameRegistrar.sol",
  "abi": [
    {
      "inputs": [
        {
          "internalType": "address",
          "name": "ensRegistry",
          "type": "address"
        },
        {
          "internalType": "bytes32",
          "name": "parentNode_",
          "type": "bytes32"
        },
        {
          "internalType": "address",
          "name": "resolver_",
          "type": "address"
        },
        {
          "internalType": "address",
          "name": "agentRegistry_",
          "type": "address"
        },
        {
          "internalType": "address",
          "name": "keeper_",
          "type": "address"
        }
      ],
      "stateMutability": "nonpayable",
      "type": "constructor"
    },
    {
      "inputs": [
        {
          "internalType": "address",
          "name": "owner",
          "type": "address"
        }
      ],
      "name": "OwnableInvalidOwner",
      "type": "error"
    },
    {
      "inputs": [
        {
          "internalType": "address",
          "name": "account",
          "type": "address"
        }
      ],
      "name": "OwnableUnauthorizedAccount",
      "type": "error"
    },
    {
      "anonymous": false,
      "inputs": [
        {
          "indexed": true,
          "internalType": "bytes32",
          "name": "node",
          "type": "bytes32"
        },
        {
          "indexed": false,
          "internalType": "string",
          "name": "label",
          "type": "string"
        },
        {
          "indexed": false,
          "internalType": "string",
          "name": "capabilitiesCSV",
          "type": "string"
        }
      ],
      "name": "CapabilitiesUpdated",
      "type": "event"
    },
    {
      "anonymous": false,
      "inputs": [
        {
          "indexed": true,
          "internalType": "address",
          "name": "newKeeper",
          "type": "address"
        }
      ],
      "name": "KeeperUpdated",
      "type": "event"
    },
    {
      "anonymous": false,
      "inputs": [
        {
          "indexed": true,
          "internalType": "address",
          "name": "previousOwner",
          "type": "address"
        },
        {
          "indexed": true,
          "internalType": "address",
          "name": "newOwner",
          "type": "address"
        }
      ],
      "name": "OwnershipTransferred",
      "type": "event"
    },
    {
      "anonymous": false,
      "inputs": [
        {
          "indexed": true,
          "internalType": "bytes32",
          "name": "node",
          "type": "bytes32"
        },
        {
          "indexed": false,
          "internalType": "string",
          "name": "label",
          "type": "string"
        },
        {
          "indexed": false,
          "internalType": "uint256",
          "name": "score",
          "type": "uint256"
        }
      ],
      "name": "ReputationScoreUpdated",
      "type": "event"
    },
    {
      "anonymous": false,
      "inputs": [
        {
          "indexed": true,
          "internalType": "address",
          "name": "newResolver",
          "type": "address"
        }
      ],
      "name": "ResolverUpdated",
      "type": "event"
    },
    {
      "anonymous": false,
      "inputs": [
        {
          "indexed": true,
          "internalType": "bytes32",
          "name": "node",
          "type": "bytes32"
        },
        {
          "indexed": false,
          "internalType": "string",
          "name": "label",
          "type": "string"
        },
        {
          "indexed": false,
          "internalType": "uint256",
          "name": "agentTokenId",
          "type": "uint256"
        },
        {
          "indexed": true,
          "internalType": "address",
          "name": "requester",
          "type": "address"
        }
      ],
      "name": "SubnameRegistered",
      "type": "event"
    },
    {
      "inputs": [],
      "name": "agentRegistry",
      "outputs": [
        {
          "internalType": "contract IOrbittRegistry",
          "name": "",
          "type": "address"
        }
      ],
      "stateMutability": "view",
      "type": "function"
    },
    {
      "inputs": [],
      "name": "ens",
      "outputs": [
        {
          "internalType": "contract IENSRegistry",
          "name": "",
          "type": "address"
        }
      ],
      "stateMutability": "view",
      "type": "function"
    },
    {
      "inputs": [],
      "name": "keeper",
      "outputs": [
        {
          "internalType": "address",
          "name": "",
          "type": "address"
        }
      ],
      "stateMutability": "view",
      "type": "function"
    },
    {
      "inputs": [
        {
          "internalType": "bytes32",
          "name": "",
          "type": "bytes32"
        }
      ],
      "name": "nodeToTokenId",
      "outputs": [
        {
          "internalType": "uint256",
          "name": "",
          "type": "uint256"
        }
      ],
      "stateMutability": "view",
      "type": "function"
    },
    {
      "inputs": [],
      "name": "owner",
      "outputs": [
        {
          "internalType": "address",
          "name": "",
          "type": "address"
        }
      ],
      "stateMutability": "view",
      "type": "function"
    },
    {
      "inputs": [],
      "name": "parentNode",
      "outputs": [
        {
          "internalType": "bytes32",
          "name": "",
          "type": "bytes32"
        }
      ],
      "stateMutability": "view",
      "type": "function"
    },
    {
      "inputs": [
        {
          "internalType": "string",
          "name": "label",
          "type": "string"
        },
        {
          "internalType": "uint256",
          "name": "agentTokenId",
          "type": "uint256"
        },
        {
          "internalType": "string[]",
          "name": "capabilities",
          "type": "string[]"
        }
      ],
      "name": "register",
      "outputs": [],
      "stateMutability": "nonpayable",
      "type": "function"
    },
    {
      "inputs": [],
      "name": "renounceOwnership",
      "outputs": [],
      "stateMutability": "nonpayable",
      "type": "function"
    },
    {
      "inputs": [],
      "name": "resolver",
      "outputs": [
        {
          "internalType": "contract ITextResolver",
          "name": "",
          "type": "address"
        }
      ],
      "stateMutability": "view",
      "type": "function"
    },
    {
      "inputs": [
        {
          "internalType": "string",
          "name": "label",
          "type": "string"
        },
        {
          "internalType": "string[]",
          "name": "capabilities",
          "type": "string[]"
        }
      ],
      "name": "setCapabilities",
      "outputs": [],
      "stateMutability": "nonpayable",
      "type": "function"
    },
    {
      "inputs": [
        {
          "internalType": "address",
          "name": "newKeeper",
          "type": "address"
        }
      ],
      "name": "setKeeper",
      "outputs": [],
      "stateMutability": "nonpayable",
      "type": "function"
    },
    {
      "inputs": [
        {
          "internalType": "string",
          "name": "label",
          "type": "string"
        },
        {
          "internalType": "uint256",
          "name": "score",
          "type": "uint256"
        }
      ],
      "name": "setReputationScore",
      "outputs": [],
      "stateMutability": "nonpayable",
      "type": "function"
    },
    {
      "inputs": [
        {
          "internalType": "address",
          "name": "newResolver",
          "type": "address"
        }
      ],
      "name": "setResolver",
      "outputs": [],
      "stateMutability": "nonpayable",
      "type": "function"
    },
    {
      "inputs": [
        {
          "internalType": "address",
          "name": "newOwner",
          "type": "address"
        }
      ],
      "name": "transferOwnership",
      "outputs": [],
      "stateMutability": "nonpayable",
      "type": "function"
    }
  ],
  "bytecode": "0x60e060405234801561000f575f5ffd5b506040516131c93803806131c9833981810160405281019061003191906104c6565b335f73ffffffffffffffffffffffffffffffffffffffff168173ffffffffffffffffffffffffffffffffffffffff16036100a2575f6040517f1e4fbdf7000000000000000000000000000000000000000000000000000000008152600401610099919061054c565b60405180910390fd5b6100b18161037460201b60201c565b505f73ffffffffffffffffffffffffffffffffffffffff168573ffffffffffffffffffffffffffffffffffffffff1603610120576040517f08c379a0000000000000000000000000000000000000000000000000000000008152600401610117906105bf565b60405180910390fd5b5f5f1b8403610164576040517f08c379a000000000000000000000000000000000000000000000000000000000815260040161015b9061064d565b60405180910390fd5b5f73ffffffffffffffffffffffffffffffffffffffff168373ffffffffffffffffffffffffffffffffffffffff16036101d2576040517f08c379a00000000000000000000000000000000000000000000000000000000081526004016101c9906106db565b60405180910390fd5b5f73ffffffffffffffffffffffffffffffffffffffff168273ffffffffffffffffffffffffffffffffffffffff1603610240576040517f08c379a000000000000000000000000000000000000000000000000000000000815260040161023790610769565b60405180910390fd5b8473ffffffffffffffffffffffffffffffffffffffff1660808173ffffffffffffffffffffffffffffffffffffffff16815250508360c081815250508260015f6101000a81548173ffffffffffffffffffffffffffffffffffffffff021916908373ffffffffffffffffffffffffffffffffffffffff1602179055508173ffffffffffffffffffffffffffffffffffffffff1660a08173ffffffffffffffffffffffffffffffffffffffff16815250505f73ffffffffffffffffffffffffffffffffffffffff168173ffffffffffffffffffffffffffffffffffffffff1614610329578061032b565b335b60025f6101000a81548173ffffffffffffffffffffffffffffffffffffffff021916908373ffffffffffffffffffffffffffffffffffffffff1602179055505050505050610787565b5f5f5f9054906101000a900473ffffffffffffffffffffffffffffffffffffffff169050815f5f6101000a81548173ffffffffffffffffffffffffffffffffffffffff021916908373ffffffffffffffffffffffffffffffffffffffff1602179055508173ffffffffffffffffffffffffffffffffffffffff168173ffffffffffffffffffffffffffffffffffffffff167f8be0079c531659141344cd1fd0a4f28419497f9722a3daafe3b4186f6b6457e060405160405180910390a35050565b5f5ffd5b5f73ffffffffffffffffffffffffffffffffffffffff82169050919050565b5f61046282610439565b9050919050565b61047281610458565b811461047c575f5ffd5b50565b5f8151905061048d81610469565b92915050565b5f819050919050565b6104a581610493565b81146104af575f5ffd5b50565b5f815190506104c08161049c565b92915050565b5f5f5f5f5f60a086880312156104df576104de610435565b5b5f6104ec8882890161047f565b95505060206104fd888289016104b2565b945050604061050e8882890161047f565b935050606061051f8882890161047f565b92505060806105308882890161047f565b9150509295509295909350565b61054681610458565b82525050565b5f60208201905061055f5f83018461053d565b92915050565b5f82825260208201905092915050565b7f4f72626974745375626e616d655265676973747261723a207a65726f20454e535f82015250565b5f6105a9602083610565565b91506105b482610575565b602082019050919050565b5f6020820190508181035f8301526105d68161059d565b9050919050565b7f4f72626974745375626e616d655265676973747261723a207a65726f207061725f8201527f656e740000000000000000000000000000000000000000000000000000000000602082015250565b5f610637602383610565565b9150610642826105dd565b604082019050919050565b5f6020820190508181035f8301526106648161062b565b9050919050565b7f4f72626974745375626e616d655265676973747261723a207a65726f207265735f8201527f6f6c766572000000000000000000000000000000000000000000000000000000602082015250565b5f6106c5602583610565565b91506106d08261066b565b604082019050919050565b5f6020820190508181035f8301526106f2816106b9565b9050919050565b7f4f72626974745375626e616d655265676973747261723a207a65726f207265675f8201527f6973747279000000000000000000000000000000000000000000000000000000602082015250565b5f610753602583610565565b915061075e826106f9565b604082019050919050565b5f6020820190508181035f83015261078081610747565b9050919050565b60805160a05160c0516129e06107e95f395f818161099a01528181610cc6015261110c01525f81816102a901528181610b0201528181610bf001528181611470015281816115c4015261167a01525f81816102cd0152610c8a01526129e05ff3fe608060405234801561000f575f5ffd5b50600436106100e8575f3560e01c8063748747e61161008a578063cbe5cd7711610064578063cbe5cd7714610210578063f2fde38b1461022c578063f3068a0014610248578063f3ad3db214610266576100e8565b8063748747e6146101b85780638da5cb5b146101d4578063aced1661146101f2576100e8565b806341cf3291116100c657806341cf32911461014657806345a75930146101765780634e543b2614610192578063715018a6146101ae576100e8565b806304f3bcec146100ec5780630d1cfcae1461010a5780633f15457f14610128575b5f5ffd5b6100f4610282565b6040516101019190611929565b60405180910390f35b6101126102a7565b60405161011f9190611962565b60405180910390f35b6101306102cb565b60405161013d919061199b565b60405180910390f35b610160600480360381019061015b91906119f8565b6102ef565b60405161016d9190611a3b565b60405180910390f35b610190600480360381019061018b9190611adf565b610304565b005b6101ac60048036038101906101a79190611b77565b610543565b005b6101b661063f565b005b6101d260048036038101906101cd9190611b77565b610652565b005b6101dc61074e565b6040516101e99190611bb1565b60405180910390f35b6101fa610775565b6040516102079190611bb1565b60405180910390f35b61022a60048036038101906102259190611c1f565b61079a565b005b61024660048036038101906102419190611b77565b610914565b005b610250610998565b60405161025d9190611cac565b60405180910390f35b610280600480360381019061027b9190611cc5565b6109bc565b005b60015f9054906101000a900473ffffffffffffffffffffffffffffffffffffffff1681565b7f000000000000000000000000000000000000000000000000000000000000000081565b7f000000000000000000000000000000000000000000000000000000000000000081565b6003602052805f5260405f205f915090505481565b60025f9054906101000a900473ffffffffffffffffffffffffffffffffffffffff1673ffffffffffffffffffffffffffffffffffffffff163373ffffffffffffffffffffffffffffffffffffffff1614610393576040517f08c379a000000000000000000000000000000000000000000000000000000000815260040161038a90611dd6565b60405180910390fd5b6103e88111156103d8576040517f08c379a00000000000000000000000000000000000000000000000000000000081526004016103cf90611e64565b60405180910390fd5b5f6103e384846110dd565b9150505f60035f8381526020019081526020015f205403610439576040517f08c379a000000000000000000000000000000000000000000000000000000000815260040161043090611ef2565b60405180910390fd5b60015f9054906101000a900473ffffffffffffffffffffffffffffffffffffffff1673ffffffffffffffffffffffffffffffffffffffff166310f13a8c826040518060400160405280601081526020017f72657075746174696f6e5f73636f7265000000000000000000000000000000008152506104b68661115c565b6040518463ffffffff1660e01b81526004016104d493929190611f70565b5f604051808303815f87803b1580156104eb575f5ffd5b505af11580156104fd573d5f5f3e3d5ffd5b50505050807f942cb805b552c48b85fbc3d06ffb902f0b6b4ab2d6fdae3f441141cf4f5a5bb285858560405161053593929190611fed565b60405180910390a250505050565b61054b611226565b5f73ffffffffffffffffffffffffffffffffffffffff168173ffffffffffffffffffffffffffffffffffffffff16036105b9576040517f08c379a00000000000000000000000000000000000000000000000000000000081526004016105b09061208d565b60405180910390fd5b8060015f6101000a81548173ffffffffffffffffffffffffffffffffffffffff021916908373ffffffffffffffffffffffffffffffffffffffff1602179055508073ffffffffffffffffffffffffffffffffffffffff167f15cd6d20bba01b3fcb790c73829dd07412cbdf689ef818c96a2505889f3736a260405160405180910390a250565b610647611226565b6106505f6112ad565b565b61065a611226565b5f73ffffffffffffffffffffffffffffffffffffffff168173ffffffffffffffffffffffffffffffffffffffff16036106c8576040517f08c379a00000000000000000000000000000000000000000000000000000000081526004016106bf9061211b565b60405180910390fd5b8060025f6101000a81548173ffffffffffffffffffffffffffffffffffffffff021916908373ffffffffffffffffffffffffffffffffffffffff1602179055508073ffffffffffffffffffffffffffffffffffffffff167f0425bcd291db1d48816f2a98edc7ecaf6dd5c64b973d9e4b3b6b750763dc6c2e60405160405180910390a250565b5f5f5f9054906101000a900473ffffffffffffffffffffffffffffffffffffffff16905090565b60025f9054906101000a900473ffffffffffffffffffffffffffffffffffffffff1681565b6107a2611226565b5f6107ad85856110dd565b9150505f60035f8381526020019081526020015f205403610803576040517f08c379a00000000000000000000000000000000000000000000000000000000081526004016107fa90611ef2565b60405180910390fd5b5f61080e848461136e565b905060015f9054906101000a900473ffffffffffffffffffffffffffffffffffffffff1673ffffffffffffffffffffffffffffffffffffffff166310f13a8c836040518060400160405280600c81526020017f6361706162696c69746965730000000000000000000000000000000000000000815250846040518463ffffffff1660e01b81526004016108a393929190611f70565b5f604051808303815f87803b1580156108ba575f5ffd5b505af11580156108cc573d5f5f3e3d5ffd5b50505050817fa1c17574d44531514af4b432b460754216af90e01241977ce6eae8919ef25a8d87878460405161090493929190612139565b60405180910390a2505050505050565b61091c611226565b5f73ffffffffffffffffffffffffffffffffffffffff168173ffffffffffffffffffffffffffffffffffffffff160361098c575f6040517f1e4fbdf70000000000000000000000000000000000000000000000000000000081526004016109839190611bb1565b60405180910390fd5b610995816112ad565b50565b7f000000000000000000000000000000000000000000000000000000000000000081565b5f8585905003610a01576040517f08c379a00000000000000000000000000000000000000000000000000000000081526004016109f8906121e0565b60405180910390fd5b5f73ffffffffffffffffffffffffffffffffffffffff1660015f9054906101000a900473ffffffffffffffffffffffffffffffffffffffff1673ffffffffffffffffffffffffffffffffffffffff1603610a90576040517f08c379a0000000000000000000000000000000000000000000000000000000008152600401610a879061226e565b60405180910390fd5b5f5f610a9c87876110dd565b915091505f60035f8381526020019081526020015f205414610af3576040517f08c379a0000000000000000000000000000000000000000000000000000000008152600401610aea906122fc565b60405180910390fd5b5f610afd8661146d565b90505f7f000000000000000000000000000000000000000000000000000000000000000073ffffffffffffffffffffffffffffffffffffffff16630d6ab7f2886040518263ffffffff1660e01b8152600401610b599190611a3b565b5f60405180830381865afa158015610b73573d5f5f3e3d5ffd5b505050506040513d5f823e3d601f19601f82011682018060405250810190610b9b9190612434565b90505f815103610be0576040517f08c379a0000000000000000000000000000000000000000000000000000000008152600401610bd7906124eb565b60405180910390fd5b5f610beb878761136e565b90505f7f000000000000000000000000000000000000000000000000000000000000000073ffffffffffffffffffffffffffffffffffffffff166356c708d58a6040518263ffffffff1660e01b8152600401610c479190611a3b565b602060405180830381865afa158015610c62573d5f5f3e3d5ffd5b505050506040513d601f19601f82011682018060405250810190610c86919061251d565b90507f000000000000000000000000000000000000000000000000000000000000000073ffffffffffffffffffffffffffffffffffffffff16635ef2c7f07f0000000000000000000000000000000000000000000000000000000000000000883060015f9054906101000a900473ffffffffffffffffffffffffffffffffffffffff165f6040518663ffffffff1660e01b8152600401610d2a959493929190612594565b5f604051808303815f87803b158015610d41575f5ffd5b505af1158015610d53573d5f5f3e3d5ffd5b5050505060015f9054906101000a900473ffffffffffffffffffffffffffffffffffffffff1673ffffffffffffffffffffffffffffffffffffffff166310f13a8c866040518060400160405280600c81526020017f6361706162696c69746965730000000000000000000000000000000000000000815250856040518463ffffffff1660e01b8152600401610dea93929190611f70565b5f604051808303815f87803b158015610e01575f5ffd5b505af1158015610e13573d5f5f3e3d5ffd5b5050505060015f9054906101000a900473ffffffffffffffffffffffffffffffffffffffff1673ffffffffffffffffffffffffffffffffffffffff166310f13a8c866040518060400160405280601081526020017f72657075746174696f6e5f73636f726500000000000000000000000000000000815250610e948561115c565b6040518463ffffffff1660e01b8152600401610eb293929190611f70565b5f604051808303815f87803b158015610ec9575f5ffd5b505af1158015610edb573d5f5f3e3d5ffd5b5050505060015f9054906101000a900473ffffffffffffffffffffffffffffffffffffffff1673ffffffffffffffffffffffffffffffffffffffff166310f13a8c866040518060400160405280600d81526020017f696e66745f746f6b656e5f696400000000000000000000000000000000000000815250610f5c8d61115c565b6040518463ffffffff1660e01b8152600401610f7a93929190611f70565b5f604051808303815f87803b158015610f91575f5ffd5b505af1158015610fa3573d5f5f3e3d5ffd5b5050505060015f9054906101000a900473ffffffffffffffffffffffffffffffffffffffff1673ffffffffffffffffffffffffffffffffffffffff166310f13a8c866040518060400160405280600b81526020017f61786c5f706565725f6964000000000000000000000000000000000000000000815250866040518463ffffffff1660e01b815260040161103a93929190611f70565b5f604051808303815f87803b158015611051575f5ffd5b505af1158015611063573d5f5f3e3d5ffd5b505050508860035f8781526020019081526020015f20819055508373ffffffffffffffffffffffffffffffffffffffff16857f980166f1c3fd154279a9c40ec0d6819a90b351ef55fc3761dd8e90483afb28dc8d8d8d6040516110c893929190611fed565b60405180910390a35050505050505050505050565b5f5f83836040516020016110f2929190612613565b6040516020818303038152906040528051906020012091507f00000000000000000000000000000000000000000000000000000000000000008260405160200161113d92919061264b565b6040516020818303038152906040528051906020012090509250929050565b60605f600161116a84611757565b0190505f8167ffffffffffffffff8111156111885761118761231e565b5b6040519080825280601f01601f1916602001820160405280156111ba5781602001600182028036833780820191505090505b5090505f82602083010190505b60011561121b578080600190039150507f3031323334353637383961626364656600000000000000000000000000000000600a86061a8153600a85816112105761120f612676565b5b0494505f85036111c7575b819350505050919050565b61122e6118a8565b73ffffffffffffffffffffffffffffffffffffffff1661124c61074e565b73ffffffffffffffffffffffffffffffffffffffff16146112ab5761126f6118a8565b6040517f118cdaa70000000000000000000000000000000000000000000000000000000081526004016112a29190611bb1565b60405180910390fd5b565b5f5f5f9054906101000a900473ffffffffffffffffffffffffffffffffffffffff169050815f5f6101000a81548173ffffffffffffffffffffffffffffffffffffffff021916908373ffffffffffffffffffffffffffffffffffffffff1602179055508173ffffffffffffffffffffffffffffffffffffffff168173ffffffffffffffffffffffffffffffffffffffff167f8be0079c531659141344cd1fd0a4f28419497f9722a3daafe3b4186f6b6457e060405160405180910390a35050565b60605f83839050036113905760405180602001604052805f8152509050611467565b5f83835f8181106113a4576113a36126a3565b5b90506020028101906113b691906126dc565b8080601f0160208091040260200160405190810160405280939291908181526020018383808284375f81840152601f19601f8201169050808301925050505050505090505f600190505b84849050811015611461578185858381811061141f5761141e6126a3565b5b905060200281019061143191906126dc565b60405160200161144393929190612794565b60405160208183030381529060405291508080600101915050611400565b50809150505b92915050565b5f7f000000000000000000000000000000000000000000000000000000000000000073ffffffffffffffffffffffffffffffffffffffff16636352211e836040518263ffffffff1660e01b81526004016114c79190611a3b565b602060405180830381865afa1580156114e2573d5f5f3e3d5ffd5b505050506040513d601f19601f8201168201806040525081019061150691906127dc565b90505f73ffffffffffffffffffffffffffffffffffffffff168173ffffffffffffffffffffffffffffffffffffffff1603611576576040517f08c379a000000000000000000000000000000000000000000000000000000000815260040161156d90612877565b60405180910390fd5b8073ffffffffffffffffffffffffffffffffffffffff163373ffffffffffffffffffffffffffffffffffffffff16148061167257503373ffffffffffffffffffffffffffffffffffffffff167f000000000000000000000000000000000000000000000000000000000000000073ffffffffffffffffffffffffffffffffffffffff1663081812fc846040518263ffffffff1660e01b815260040161161b9190611a3b565b602060405180830381865afa158015611636573d5f5f3e3d5ffd5b505050506040513d601f19601f8201168201806040525081019061165a91906127dc565b73ffffffffffffffffffffffffffffffffffffffff16145b8061171357507f000000000000000000000000000000000000000000000000000000000000000073ffffffffffffffffffffffffffffffffffffffff1663e985e9c582336040518363ffffffff1660e01b81526004016116d3929190612895565b602060405180830381865afa1580156116ee573d5f5f3e3d5ffd5b505050506040513d601f19601f8201168201806040525081019061171291906128f1565b5b611752576040517f08c379a00000000000000000000000000000000000000000000000000000000081526004016117499061298c565b60405180910390fd5b919050565b5f5f5f90507a184f03e93ff9f4daa797ed6e38ed64bf6a1f01000000000000000083106117b3577a184f03e93ff9f4daa797ed6e38ed64bf6a1f01000000000000000083816117a9576117a8612676565b5b0492506040810190505b6d04ee2d6d415b85acef810000000083106117f0576d04ee2d6d415b85acef810000000083816117e6576117e5612676565b5b0492506020810190505b662386f26fc10000831061181f57662386f26fc10000838161181557611814612676565b5b0492506010810190505b6305f5e1008310611848576305f5e100838161183e5761183d612676565b5b0492506008810190505b612710831061186d57612710838161186357611862612676565b5b0492506004810190505b60648310611890576064838161188657611885612676565b5b0492506002810190505b600a831061189f576001810190505b80915050919050565b5f33905090565b5f73ffffffffffffffffffffffffffffffffffffffff82169050919050565b5f819050919050565b5f6118f16118ec6118e7846118af565b6118ce565b6118af565b9050919050565b5f611902826118d7565b9050919050565b5f611913826118f8565b9050919050565b61192381611909565b82525050565b5f60208201905061193c5f83018461191a565b92915050565b5f61194c826118f8565b9050919050565b61195c81611942565b82525050565b5f6020820190506119755f830184611953565b92915050565b5f611985826118f8565b9050919050565b6119958161197b565b82525050565b5f6020820190506119ae5f83018461198c565b92915050565b5f604051905090565b5f5ffd5b5f5ffd5b5f819050919050565b6119d7816119c5565b81146119e1575f5ffd5b50565b5f813590506119f2816119ce565b92915050565b5f60208284031215611a0d57611a0c6119bd565b5b5f611a1a848285016119e4565b91505092915050565b5f819050919050565b611a3581611a23565b82525050565b5f602082019050611a4e5f830184611a2c565b92915050565b5f5ffd5b5f5ffd5b5f5ffd5b5f5f83601f840112611a7557611a74611a54565b5b8235905067ffffffffffffffff811115611a9257611a91611a58565b5b602083019150836001820283011115611aae57611aad611a5c565b5b9250929050565b611abe81611a23565b8114611ac8575f5ffd5b50565b5f81359050611ad981611ab5565b92915050565b5f5f5f60408486031215611af657611af56119bd565b5b5f84013567ffffffffffffffff811115611b1357611b126119c1565b5b611b1f86828701611a60565b93509350506020611b3286828701611acb565b9150509250925092565b5f611b46826118af565b9050919050565b611b5681611b3c565b8114611b60575f5ffd5b50565b5f81359050611b7181611b4d565b92915050565b5f60208284031215611b8c57611b8b6119bd565b5b5f611b9984828501611b63565b91505092915050565b611bab81611b3c565b82525050565b5f602082019050611bc45f830184611ba2565b92915050565b5f5f83601f840112611bdf57611bde611a54565b5b8235905067ffffffffffffffff811115611bfc57611bfb611a58565b5b602083019150836020820283011115611c1857611c17611a5c565b5b9250929050565b5f5f5f5f60408587031215611c3757611c366119bd565b5b5f85013567ffffffffffffffff811115611c5457611c536119c1565b5b611c6087828801611a60565b9450945050602085013567ffffffffffffffff811115611c8357611c826119c1565b5b611c8f87828801611bca565b925092505092959194509250565b611ca6816119c5565b82525050565b5f602082019050611cbf5f830184611c9d565b92915050565b5f5f5f5f5f60608688031215611cde57611cdd6119bd565b5b5f86013567ffffffffffffffff811115611cfb57611cfa6119c1565b5b611d0788828901611a60565b95509550506020611d1a88828901611acb565b935050604086013567ffffffffffffffff811115611d3b57611d3a6119c1565b5b611d4788828901611bca565b92509250509295509295909350565b5f82825260208201905092915050565b7f4f72626974745375626e616d655265676973747261723a206b6565706572206f5f8201527f6e6c790000000000000000000000000000000000000000000000000000000000602082015250565b5f611dc0602383611d56565b9150611dcb82611d66565b604082019050919050565b5f6020820190508181035f830152611ded81611db4565b9050919050565b7f4f72626974745375626e616d655265676973747261723a2073636f726520746f5f8201527f6f20686967680000000000000000000000000000000000000000000000000000602082015250565b5f611e4e602683611d56565b9150611e5982611df4565b604082019050919050565b5f6020820190508181035f830152611e7b81611e42565b9050919050565b7f4f72626974745375626e616d655265676973747261723a20756e7265676973745f8201527f65726564206c6162656c00000000000000000000000000000000000000000000602082015250565b5f611edc602a83611d56565b9150611ee782611e82565b604082019050919050565b5f6020820190508181035f830152611f0981611ed0565b9050919050565b5f81519050919050565b8281835e5f83830152505050565b5f601f19601f8301169050919050565b5f611f4282611f10565b611f4c8185611d56565b9350611f5c818560208601611f1a565b611f6581611f28565b840191505092915050565b5f606082019050611f835f830186611c9d565b8181036020830152611f958185611f38565b90508181036040830152611fa98184611f38565b9050949350505050565b828183375f83830152505050565b5f611fcc8385611d56565b9350611fd9838584611fb3565b611fe283611f28565b840190509392505050565b5f6040820190508181035f830152612006818587611fc1565b90506120156020830184611a2c565b949350505050565b7f4f72626974745375626e616d655265676973747261723a207a65726f207265735f8201527f6f6c766572000000000000000000000000000000000000000000000000000000602082015250565b5f612077602583611d56565b91506120828261201d565b604082019050919050565b5f6020820190508181035f8301526120a48161206b565b9050919050565b7f4f72626974745375626e616d655265676973747261723a207a65726f206b65655f8201527f7065720000000000000000000000000000000000000000000000000000000000602082015250565b5f612105602383611d56565b9150612110826120ab565b604082019050919050565b5f6020820190508181035f830152612132816120f9565b9050919050565b5f6040820190508181035f830152612152818587611fc1565b905081810360208301526121668184611f38565b9050949350505050565b7f4f72626974745375626e616d655265676973747261723a20656d707479206c615f8201527f62656c0000000000000000000000000000000000000000000000000000000000602082015250565b5f6121ca602383611d56565b91506121d582612170565b604082019050919050565b5f6020820190508181035f8301526121f7816121be565b9050919050565b7f4f72626974745375626e616d655265676973747261723a207265736f6c7665725f8201527f20756e7365740000000000000000000000000000000000000000000000000000602082015250565b5f612258602683611d56565b9150612263826121fe565b604082019050919050565b5f6020820190508181035f8301526122858161224c565b9050919050565b7f4f72626974745375626e616d655265676973747261723a206c6162656c2074615f8201527f6b656e0000000000000000000000000000000000000000000000000000000000602082015250565b5f6122e6602383611d56565b91506122f18261228c565b604082019050919050565b5f6020820190508181035f830152612313816122da565b9050919050565b5f5ffd5b7f4e487b71000000000000000000000000000000000000000000000000000000005f52604160045260245ffd5b61235482611f28565b810181811067ffffffffffffffff821117156123735761237261231e565b5b80604052505050565b5f6123856119b4565b9050612391828261234b565b919050565b5f67ffffffffffffffff8211156123b0576123af61231e565b5b6123b982611f28565b9050602081019050919050565b5f6123d86123d384612396565b61237c565b9050828152602081018484840111156123f4576123f361231a565b5b6123ff848285611f1a565b509392505050565b5f82601f83011261241b5761241a611a54565b5b815161242b8482602086016123c6565b91505092915050565b5f60208284031215612449576124486119bd565b5b5f82015167ffffffffffffffff811115612466576124656119c1565b5b61247284828501612407565b91505092915050565b7f4f72626974745375626e616d655265676973747261723a206d697373696e67205f8201527f7065657220696400000000000000000000000000000000000000000000000000602082015250565b5f6124d5602783611d56565b91506124e08261247b565b604082019050919050565b5f6020820190508181035f830152612502816124c9565b9050919050565b5f8151905061251781611ab5565b92915050565b5f60208284031215612532576125316119bd565b5b5f61253f84828501612509565b91505092915050565b5f819050919050565b5f67ffffffffffffffff82169050919050565b5f61257e61257961257484612548565b6118ce565b612551565b9050919050565b61258e81612564565b82525050565b5f60a0820190506125a75f830188611c9d565b6125b46020830187611c9d565b6125c16040830186611ba2565b6125ce6060830185611ba2565b6125db6080830184612585565b9695505050505050565b5f81905092915050565b5f6125fa83856125e5565b9350612607838584611fb3565b82840190509392505050565b5f61261f8284866125ef565b91508190509392505050565b5f819050919050565b612645612640826119c5565b61262b565b82525050565b5f6126568285612634565b6020820191506126668284612634565b6020820191508190509392505050565b7f4e487b71000000000000000000000000000000000000000000000000000000005f52601260045260245ffd5b7f4e487b71000000000000000000000000000000000000000000000000000000005f52603260045260245ffd5b5f5ffd5b5f5ffd5b5f5ffd5b5f5f833560016020038436030381126126f8576126f76126d0565b5b80840192508235915067ffffffffffffffff82111561271a576127196126d4565b5b602083019250600182023603831315612736576127356126d8565b5b509250929050565b5f61274882611f10565b61275281856125e5565b9350612762818560208601611f1a565b80840191505092915050565b7f2c00000000000000000000000000000000000000000000000000000000000000815250565b5f61279f828661273e565b91506127aa8261276e565b6001820191506127bb8284866125ef565b9150819050949350505050565b5f815190506127d681611b4d565b92915050565b5f602082840312156127f1576127f06119bd565b5b5f6127fe848285016127c8565b91505092915050565b7f4f72626974745375626e616d655265676973747261723a20696e76616c6964205f8201527f746f6b656e000000000000000000000000000000000000000000000000000000602082015250565b5f612861602583611d56565b915061286c82612807565b604082019050919050565b5f6020820190508181035f83015261288e81612855565b9050919050565b5f6040820190506128a85f830185611ba2565b6128b56020830184611ba2565b9392505050565b5f8115159050919050565b6128d0816128bc565b81146128da575f5ffd5b50565b5f815190506128eb816128c7565b92915050565b5f60208284031215612906576129056119bd565b5b5f612913848285016128dd565b91505092915050565b7f4f72626974745375626e616d655265676973747261723a20756e617574686f725f8201527f697a656400000000000000000000000000000000000000000000000000000000602082015250565b5f612976602483611d56565b91506129818261291c565b604082019050919050565b5f6020820190508181035f8301526129a38161296a565b905091905056fea264697066735822122002ab328e6050ec38b1127c1aefa06fd871ddd30adfbe1d351278ad283609075464736f6c634300081c0033",
  "linkReferences": {},
  "deployedLinkReferences": {},
  "immutableReferences": {
    "6202": [
      {
        "length": 32,
        "start": 717
      },
      {
        "length": 32,
        "start": 3210
      }
    ],
    "6205": [
      {
        "length": 32,
        "start": 681
      },
      {
        "length": 32,
        "start": 2818
      },
      {
        "length": 32,
        "start": 3056
      },
      {
        "length": 32,
        "start": 5232
      },
      {
        "length": 32,
        "start": 5572
      },
      {
        "length": 32,
        "start": 5754
      }
    ],
    "6207": [
      {
        "length": 32,
        "start": 2458
      },
      {
        "length": 32,
        "start": 3270
      },
      {
        "length": 32,
        "start": 4364
      }
    ]
  },
  "inputSourceName": "project/contracts/OrbittSubnameRegistrar.sol",
  "buildInfoId": "solc-0_8_28-d835d9123c8d4f86ea324319babeec192506da7e"
}