{
  "_format": "hh3-artifact-1",
  "contractName": "OrbittRegistry",
  "sourceName": "contracts/OrbittRegistry.sol",
  "abi": [
    {
      "inputs": [
        {
          "internalType": "string",
          "name": "name",
          "type": "string"
        },
        {
          "internalType": "string",
          "name": "symbol",
          "type": "string"
        },
        {
          "internalType": "address",
          "name": "phalaOracleAddress",
          "type": "address"
        },
        {
          "internalType": "address",
          "name": "ogStorageAddress",
          "type": "address"
        }
      ],
      "stateMutability": "nonpayable",
      "type": "constructor"
    },
    {
      "inputs": [
        {
          "internalType": "address",
          "name": "sender",
          "type": "address"
        },
        {
          "internalType": "uint256",
          "name": "tokenId",
          "type": "uint256"
        },
        {
          "internalType": "address",
          "name": "owner",
          "type": "address"
        }
      ],
      "name": "ERC721IncorrectOwner",
      "type": "error"
    },
    {
      "inputs": [
        {
          "internalType": "address",
          "name": "operator",
          "type": "address"
        },
        {
          "internalType": "uint256",
          "name": "tokenId",
          "type": "uint256"
        }
      ],
      "name": "ERC721InsufficientApproval",
      "type": "error"
    },
    {
      "inputs": [
        {
          "internalType": "address",
          "name": "approver",
          "type": "address"
        }
      ],
      "name": "ERC721InvalidApprover",
      "type": "error"
    },
    {
      "inputs": [
        {
          "internalType": "address",
          "name": "operator",
          "type": "address"
        }
      ],
      "name": "ERC721InvalidOperator",
      "type": "error"
    },
    {
      "inputs": [
        {
          "internalType": "address",
          "name": "owner",
          "type": "address"
        }
      ],
      "name": "ERC721InvalidOwner",
      "type": "error"
    },
    {
      "inputs": [
        {
          "internalType": "address",
          "name": "receiver",
          "type": "address"
        }
      ],
      "name": "ERC721InvalidReceiver",
      "type": "error"
    },
    {
      "inputs": [
        {
          "internalType": "address",
          "name": "sender",
          "type": "address"
        }
      ],
      "name": "ERC721InvalidSender",
      "type": "error"
    },
    {
      "inputs": [
        {
          "internalType": "uint256",
          "name": "tokenId",
          "type": "uint256"
        }
      ],
      "name": "ERC721NonexistentToken",
      "type": "error"
    },
    {
      "inputs": [
        {
          "internalType": "address",
          "name": "owner",
          "type": "address"
        }
      ],
      "name": "OwnableInvalidOwner",
      "type": "error"
    },
    {
      "inputs": [
        {
          "internalType": "address",
          "name": "account",
          "type": "address"
        }
      ],
      "name": "OwnableUnauthorizedAccount",
      "type": "error"
    },
    {
      "inputs": [],
      "name": "ReentrancyGuardReentrantCall",
      "type": "error"
    },
    {
      "anonymous": false,
      "inputs": [
        {
          "indexed": true,
          "internalType": "address",
          "name": "owner",
          "type": "address"
        },
        {
          "indexed": true,
          "internalType": "address",
          "name": "approved",
          "type": "address"
        },
        {
          "indexed": true,
          "internalType": "uint256",
          "name": "tokenId",
          "type": "uint256"
        }
      ],
      "name": "Approval",
      "type": "event"
    },
    {
      "anonymous": false,
      "inputs": [
        {
          "indexed": true,
          "internalType": "address",
          "name": "owner",
          "type": "address"
        },
        {
          "indexed": true,
          "internalType": "address",
          "name": "operator",
          "type": "address"
        },
        {
          "indexed": false,
          "internalType": "bool",
          "name": "approved",
          "type": "bool"
        }
      ],
      "name": "ApprovalForAll",
      "type": "event"
    },
    {
      "anonymous": false,
      "inputs": [
        {
          "indexed": true,
          "internalType": "uint256",
          "name": "tokenId",
          "type": "uint256"
        },
        {
          "indexed": false,
          "internalType": "bytes32",
          "name": "metadataHash",
          "type": "bytes32"
        },
        {
          "indexed": false,
          "internalType": "string",
          "name": "encryptedURI",
          "type": "string"
        }
      ],
      "name": "MetadataUpdated",
      "type": "event"
    },
    {
      "anonymous": false,
      "inputs": [
        {
          "indexed": true,
          "internalType": "address",
          "name": "previousOwner",
          "type": "address"
        },
        {
          "indexed": true,
          "internalType": "address",
          "name": "newOwner",
          "type": "address"
        }
      ],
      "name": "OwnershipTransferred",
      "type": "event"
    },
    {
      "anonymous": false,
      "inputs": [
        {
          "indexed": true,
          "internalType": "address",
          "name": "from",
          "type": "address"
        },
        {
          "indexed": true,
          "internalType": "address",
          "name": "to",
          "type": "address"
        },
        {
          "indexed": true,
          "internalType": "uint256",
          "name": "tokenId",
          "type": "uint256"
        }
      ],
      "name": "Transfer",
      "type": "event"
    },
    {
      "anonymous": false,
      "inputs": [
        {
          "indexed": true,
          "internalType": "uint256",
          "name": "tokenId",
          "type": "uint256"
        },
        {
          "indexed": true,
          "internalType": "address",
          "name": "executor",
          "type": "address"
        },
        {
          "indexed": false,
          "internalType": "bytes",
          "name": "perms",
          "type": "bytes"
        }
      ],
      "name": "UsageAuthorized",
      "type": "event"
    },
    {
      "inputs": [
        {
          "internalType": "address",
          "name": "to",
          "type": "address"
        },
        {
          "internalType": "uint256",
          "name": "tokenId",
          "type": "uint256"
        }
      ],
      "name": "approve",
      "outputs": [],
      "stateMutability": "nonpayable",
      "type": "function"
    },
    {
      "inputs": [
        {
          "internalType": "uint256",
          "name": "tokenId",
          "type": "uint256"
        },
        {
          "internalType": "address",
          "name": "executor",
          "type": "address"
        },
        {
          "internalType": "bytes",
          "name": "perms",
          "type": "bytes"
        }
      ],
      "name": "authorizeUsage",
      "outputs": [],
      "stateMutability": "nonpayable",
      "type": "function"
    },
    {
      "inputs": [
        {
          "internalType": "uint256",
          "name": "",
          "type": "uint256"
        }
      ],
      "name": "axlPeerId",
      "outputs": [
        {
          "internalType": "string",
          "name": "",
          "type": "string"
        }
      ],
      "stateMutability": "view",
      "type": "function"
    },
    {
      "inputs": [
        {
          "internalType": "address",
          "name": "owner",
          "type": "address"
        }
      ],
      "name": "balanceOf",
      "outputs": [
        {
          "internalType": "uint256",
          "name": "",
          "type": "uint256"
        }
      ],
      "stateMutability": "view",
      "type": "function"
    },
    {
      "inputs": [
        {
          "internalType": "uint256",
          "name": "tokenId",
          "type": "uint256"
        }
      ],
      "name": "getApproved",
      "outputs": [
        {
          "internalType": "address",
          "name": "",
          "type": "address"
        }
      ],
      "stateMutability": "view",
      "type": "function"
    },
    {
      "inputs": [
        {
          "internalType": "uint256",
          "name": "tokenId",
          "type": "uint256"
        },
        {
          "internalType": "address",
          "name": "executor",
          "type": "address"
        }
      ],
      "name": "getAuthorization",
      "outputs": [
        {
          "internalType": "bytes",
          "name": "",
          "type": "bytes"
        }
      ],
      "stateMutability": "view",
      "type": "function"
    },
    {
      "inputs": [
        {
          "internalType": "address",
          "name": "owner",
          "type": "address"
        },
        {
          "internalType": "address",
          "name": "operator",
          "type": "address"
        }
      ],
      "name": "isApprovedForAll",
      "outputs": [
        {
          "internalType": "bool",
          "name": "",
          "type": "bool"
        }
      ],
      "stateMutability": "view",
      "type": "function"
    },
    {
      "inputs": [
        {
          "internalType": "uint256",
          "name": "",
          "type": "uint256"
        }
      ],
      "name": "jobsCompleted",
      "outputs": [
        {
          "internalType": "uint256",
          "name": "",
          "type": "uint256"
        }
      ],
      "stateMutability": "view",
      "type": "function"
    },
    {
      "inputs": [],
      "name": "keeper",
      "outputs": [
        {
          "internalType": "address",
          "name": "",
          "type": "address"
        }
      ],
      "stateMutability": "view",
      "type": "function"
    },
    {
      "inputs": [
        {
          "internalType": "address",
          "name": "to",
          "type": "address"
        },
        {
          "internalType": "string",
          "name": "encryptedURI",
          "type": "string"
        },
        {
          "internalType": "bytes32",
          "name": "metadataHash",
          "type": "bytes32"
        }
      ],
      "name": "mint",
      "outputs": [],
      "stateMutability": "nonpayable",
      "type": "function"
    },
    {
      "inputs": [],
      "name": "name",
      "outputs": [
        {
          "internalType": "string",
          "name": "",
          "type": "string"
        }
      ],
      "stateMutability": "view",
      "type": "function"
    },
    {
      "inputs": [],
      "name": "ogStorage",
      "outputs": [
        {
          "internalType": "address",
          "name": "",
          "type": "address"
        }
      ],
      "stateMutability": "view",
      "type": "function"
    },
    {
      "inputs": [],
      "name": "owner",
      "outputs": [
        {
          "internalType": "address",
          "name": "",
          "type": "address"
        }
      ],
      "stateMutability": "view",
      "type": "function"
    },
    {
      "inputs": [
        {
          "internalType": "uint256",
          "name": "tokenId",
          "type": "uint256"
        }
      ],
      "name": "ownerOf",
      "outputs": [
        {
          "internalType": "address",
          "name": "",
          "type": "address"
        }
      ],
      "stateMutability": "view",
      "type": "function"
    },
    {
      "inputs": [],
      "name": "phalaOracle",
      "outputs": [
        {
          "internalType": "address",
          "name": "",
          "type": "address"
        }
      ],
      "stateMutability": "view",
      "type": "function"
    },
    {
      "inputs": [],
      "name": "renounceOwnership",
      "outputs": [],
      "stateMutability": "nonpayable",
      "type": "function"
    },
    {
      "inputs": [
        {
          "internalType": "uint256",
          "name": "",
          "type": "uint256"
        }
      ],
      "name": "reputation",
      "outputs": [
        {
          "internalType": "uint256",
          "name": "",
          "type": "uint256"
        }
      ],
      "stateMutability": "view",
      "type": "function"
    },
    {
      "inputs": [
        {
          "internalType": "address",
          "name": "from",
          "type": "address"
        },
        {
          "internalType": "address",
          "name": "to",
          "type": "address"
        },
        {
          "internalType": "uint256",
          "name": "tokenId",
          "type": "uint256"
        }
      ],
      "name": "safeTransferFrom",
      "outputs": [],
      "stateMutability": "nonpayable",
      "type": "function"
    },
    {
      "inputs": [
        {
          "internalType": "address",
          "name": "from",
          "type": "address"
        },
        {
          "internalType": "address",
          "name": "to",
          "type": "address"
        },
        {
          "internalType": "uint256",
          "name": "tokenId",
          "type": "uint256"
        },
        {
          "internalType": "bytes",
          "name": "data",
          "type": "bytes"
        }
      ],
      "name": "safeTransferFrom",
      "outputs": [],
      "stateMutability": "nonpayable",
      "type": "function"
    },
    {
      "inputs": [
        {
          "internalType": "address",
          "name": "operator",
          "type": "address"
        },
        {
          "internalType": "bool",
          "name": "approved",
          "type": "bool"
        }
      ],
      "name": "setApprovalForAll",
      "outputs": [],
      "stateMutability": "nonpayable",
      "type": "function"
    },
    {
      "inputs": [
        {
          "internalType": "address",
          "name": "newKeeper",
          "type": "address"
        }
      ],
      "name": "setKeeper",
      "outputs": [],
      "stateMutability": "nonpayable",
      "type": "function"
    },
    {
      "inputs": [
        {
          "internalType": "bytes4",
          "name": "interfaceId",
          "type": "bytes4"
        }
      ],
      "name": "supportsInterface",
      "outputs": [
        {
          "internalType": "bool",
          "name": "",
          "type": "bool"
        }
      ],
      "stateMutability": "view",
      "type": "function"
    },
    {
      "inputs": [],
      "name": "symbol",
      "outputs": [
        {
          "internalType": "string",
          "name": "",
          "type": "string"
        }
      ],
      "stateMutability": "view",
      "type": "function"
    },
    {
      "inputs": [
        {
          "internalType": "uint256",
          "name": "tokenId",
          "type": "uint256"
        }
      ],
      "name": "tokenURI",
      "outputs": [
        {
          "internalType": "string",
          "name": "",
          "type": "string"
        }
      ],
      "stateMutability": "view",
      "type": "function"
    },
    {
      "inputs": [
        {
          "internalType": "address",
          "name": "from",
          "type": "address"
        },
        {
          "internalType": "address",
          "name": "to",
          "type": "address"
        },
        {
          "internalType": "uint256",
          "name": "tokenId",
          "type": "uint256"
        },
        {
          "internalType": "bytes",
          "name": "sealedKey",
          "type": "bytes"
        },
        {
          "internalType": "bytes",
          "name": "proof",
          "type": "bytes"
        }
      ],
      "name": "transfer",
      "outputs": [],
      "stateMutability": "nonpayable",
      "type": "function"
    },
    {
      "inputs": [
        {
          "internalType": "address",
          "name": "from",
          "type": "address"
        },
        {
          "internalType": "address",
          "name": "to",
          "type": "address"
        },
        {
          "internalType": "uint256",
          "name": "tokenId",
          "type": "uint256"
        }
      ],
      "name": "transferFrom",
      "outputs": [],
      "stateMutability": "nonpayable",
      "type": "function"
    },
    {
      "inputs": [
        {
          "internalType": "address",
          "name": "newOwner",
          "type": "address"
        }
      ],
      "name": "transferOwnership",
      "outputs": [],
      "stateMutability": "nonpayable",
      "type": "function"
    },
    {
      "inputs": [
        {
          "internalType": "uint256",
          "name": "tokenId",
          "type": "uint256"
        },
        {
          "internalType": "uint256",
          "name": "newScore",
          "type": "uint256"
        }
      ],
      "name": "updateReputation",
      "outputs": [],
      "stateMutability": "nonpayable",
      "type": "function"
    }
  ],
  "bytecode": "0x60c06040526001600e55348015610014575f5ffd5b506040516144523803806144528339818101604052810190610036919061044b565b338484815f908161004791906106f7565b50806001908161005791906106f7565b505050600161007861006d6101af60201b60201c565b6101d860201b60201c565b5f01819055505f73ffffffffffffffffffffffffffffffffffffffff168173ffffffffffffffffffffffffffffffffffffffff16036100ee575f6040517f1e4fbdf70000000000000000000000000000000000000000000000000000000081526004016100e591906107d5565b60405180910390fd5b6100fd816101e160201b60201c565b508173ffffffffffffffffffffffffffffffffffffffff1660808173ffffffffffffffffffffffffffffffffffffffff16815250508073ffffffffffffffffffffffffffffffffffffffff1660a08173ffffffffffffffffffffffffffffffffffffffff168152505033600d5f6101000a81548173ffffffffffffffffffffffffffffffffffffffff021916908373ffffffffffffffffffffffffffffffffffffffff160217905550505050506107ee565b5f7f9b779b17422d0df92223018b32b4d1fa46e071723d6817e2486d003becc55f005f1b905090565b5f819050919050565b5f60065f9054906101000a900473ffffffffffffffffffffffffffffffffffffffff1690508160065f6101000a81548173ffffffffffffffffffffffffffffffffffffffff021916908373ffffffffffffffffffffffffffffffffffffffff1602179055508173ffffffffffffffffffffffffffffffffffffffff168173ffffffffffffffffffffffffffffffffffffffff167f8be0079c531659141344cd1fd0a4f28419497f9722a3daafe3b4186f6b6457e060405160405180910390a35050565b5f604051905090565b5f5ffd5b5f5ffd5b5f5ffd5b5f5ffd5b5f601f19601f8301169050919050565b7f4e487b71000000000000000000000000000000000000000000000000000000005f52604160045260245ffd5b610303826102bd565b810181811067ffffffffffffffff82111715610322576103216102cd565b5b80604052505050565b5f6103346102a4565b905061034082826102fa565b919050565b5f67ffffffffffffffff82111561035f5761035e6102cd565b5b610368826102bd565b9050602081019050919050565b8281835e5f83830152505050565b5f61039561039084610345565b61032b565b9050828152602081018484840111156103b1576103b06102b9565b5b6103bc848285610375565b509392505050565b5f82601f8301126103d8576103d76102b5565b5b81516103e8848260208601610383565b91505092915050565b5f73ffffffffffffffffffffffffffffffffffffffff82169050919050565b5f61041a826103f1565b9050919050565b61042a81610410565b8114610434575f5ffd5b50565b5f8151905061044581610421565b92915050565b5f5f5f5f60808587031215610463576104626102ad565b5b5f85015167ffffffffffffffff8111156104805761047f6102b1565b5b61048c878288016103c4565b945050602085015167ffffffffffffffff8111156104ad576104ac6102b1565b5b6104b9878288016103c4565b93505060406104ca87828801610437565b92505060606104db87828801610437565b91505092959194509250565b5f81519050919050565b7f4e487b71000000000000000000000000000000000000000000000000000000005f52602260045260245ffd5b5f600282049050600182168061053557607f821691505b602082108103610548576105476104f1565b5b50919050565b5f819050815f5260205f209050919050565b5f6020601f8301049050919050565b5f82821b905092915050565b5f600883026105aa7fffffffffffffffffffffffffffffffffffffffffffffffffffffffffffffffff8261056f565b6105b4868361056f565b95508019841693508086168417925050509392505050565b5f819050919050565b5f819050919050565b5f6105f86105f36105ee846105cc565b6105d5565b6105cc565b9050919050565b5f819050919050565b610611836105de565b61062561061d826105ff565b84845461057b565b825550505050565b5f5f905090565b61063c61062d565b610647818484610608565b505050565b5b8181101561066a5761065f5f82610634565b60018101905061064d565b5050565b601f8211156106af576106808161054e565b61068984610560565b81016020851015610698578190505b6106ac6106a485610560565b83018261064c565b50505b505050565b5f82821c905092915050565b5f6106cf5f19846008026106b4565b1980831691505092915050565b5f6106e783836106c0565b9150826002028217905092915050565b610700826104e7565b67ffffffffffffffff811115610719576107186102cd565b5b610723825461051e565b61072e82828561066e565b5f60209050601f83116001811461075f575f841561074d578287015190505b61075785826106dc565b8655506107be565b601f19841661076d8661054e565b5f5b828110156107945784890151825560018201915060208501945060208101905061076f565b868310156107b157848901516107ad601f8916826106c0565b8355505b6001600288020188555050505b505050505050565b6107cf81610410565b82525050565b5f6020820190506107e85f8301846107c6565b92915050565b60805160a051613c4361080f5f395f610b0c01525f610ae80152613c435ff3fe608060405234801561000f575f5ffd5b50600436106101c2575f3560e01c806370a08231116100f7578063aced166111610095578063c87b56dd1161006f578063c87b56dd14610500578063d34047b614610530578063e985e9c51461054c578063f2fde38b1461057c576101c2565b8063aced1661146104aa578063b88d4fde146104c8578063c78fed04146104e4576101c2565b80637b297a6f116100d15780637b297a6f146104365780638da5cb5b1461045257806395d89b4114610470578063a22cb4651461048e576101c2565b806370a08231146103e0578063715018a614610410578063748747e61461041a576101c2565b806323b872dd1161016457806342842e0e1161013e57806342842e0e1461033457806356c708d5146103505780635993daac146103805780636352211e146103b0576101c2565b806323b872dd146102dc57806325e42f2e146102f857806331093d3014610316576101c2565b8063081812fc116101a0578063081812fc14610230578063095ea7b3146102605780630d6ab7f21461027c5780631d046465146102ac576101c2565b806301ffc9a7146101c65780630675f763146101f657806306fdde0314610212575b5f5ffd5b6101e060048036038101906101db91906126b9565b610598565b6040516101ed91906126fe565b60405180910390f35b610210600480360381019061020b919061274a565b610679565b005b61021a6107af565b60405161022791906127f8565b60405180910390f35b61024a60048036038101906102459190612818565b61083e565b6040516102579190612882565b60405180910390f35b61027a600480360381019061027591906128c5565b610859565b005b61029660048036038101906102919190612818565b61086f565b6040516102a391906127f8565b60405180910390f35b6102c660048036038101906102c19190612903565b61090a565b6040516102d39190612993565b60405180910390f35b6102f660048036038101906102f191906129b3565b6109e7565b005b610300610ae6565b60405161030d9190612882565b60405180910390f35b61031e610b0a565b60405161032b9190612882565b60405180910390f35b61034e600480360381019061034991906129b3565b610b2e565b005b61036a60048036038101906103659190612818565b610b4d565b6040516103779190612a12565b60405180910390f35b61039a60048036038101906103959190612818565b610b62565b6040516103a79190612a12565b60405180910390f35b6103ca60048036038101906103c59190612818565b610b77565b6040516103d79190612882565b60405180910390f35b6103fa60048036038101906103f59190612a2b565b610b88565b6040516104079190612a12565b60405180910390f35b610418610c3e565b005b610434600480360381019061042f9190612a2b565b610c51565b005b610450600480360381019061044b9190612ab7565b610d0a565b005b61045a610eb9565b6040516104679190612882565b60405180910390f35b610478610ee1565b60405161048591906127f8565b60405180910390f35b6104a860048036038101906104a39190612b52565b610f71565b005b6104b2610f87565b6040516104bf9190612882565b60405180910390f35b6104e260048036038101906104dd9190612cb8565b610fac565b005b6104fe60048036038101906104f99190612d38565b610fd1565b005b61051a60048036038101906105159190612818565b611136565b60405161052791906127f8565b60405180910390f35b61054a60048036038101906105459190612e77565b61119c565b005b61056660048036038101906105619190612ee8565b611340565b60405161057391906126fe565b60405180910390f35b61059660048036038101906105919190612a2b565b6113ce565b005b5f7f80ac58cd000000000000000000000000000000000000000000000000000000007bffffffffffffffffffffffffffffffffffffffffffffffffffffffff1916827bffffffffffffffffffffffffffffffffffffffffffffffffffffffff1916148061066257507f5b5e139f000000000000000000000000000000000000000000000000000000007bffffffffffffffffffffffffffffffffffffffffffffffffffffffff1916827bffffffffffffffffffffffffffffffffffffffffffffffffffffffff1916145b80610672575061067182611452565b5b9050919050565b600d5f9054906101000a900473ffffffffffffffffffffffffffffffffffffffff1673ffffffffffffffffffffffffffffffffffffffff163373ffffffffffffffffffffffffffffffffffffffff1614610708576040517f08c379a00000000000000000000000000000000000000000000000000000000081526004016106ff90612f70565b60405180910390fd5b610711826114bb565b610750576040517f08c379a000000000000000000000000000000000000000000000000000000000815260040161074790612fd8565b60405180910390fd5b6103e8811115610795576040517f08c379a000000000000000000000000000000000000000000000000000000000815260040161078c90613040565b60405180910390fd5b8060095f8481526020019081526020015f20819055505050565b60605f80546107bd9061308b565b80601f01602080910402602001604051908101604052809291908181526020018280546107e99061308b565b80156108345780601f1061080b57610100808354040283529160200191610834565b820191905f5260205f20905b81548152906001019060200180831161081757829003601f168201915b5050505050905090565b5f610848826114fb565b5061085282611581565b9050919050565b61086b82826108666115ba565b6115c1565b5050565b600b602052805f5260405f205f91509050805461088b9061308b565b80601f01602080910402602001604051908101604052809291908181526020018280546108b79061308b565b80156109025780601f106108d957610100808354040283529160200191610902565b820191905f5260205f20905b8154815290600101906020018083116108e557829003601f168201915b505050505081565b6060600c5f8481526020019081526020015f205f8373ffffffffffffffffffffffffffffffffffffffff1673ffffffffffffffffffffffffffffffffffffffff1681526020019081526020015f2080546109639061308b565b80601f016020809104026020016040519081016040528092919081815260200182805461098f9061308b565b80156109da5780601f106109b1576101008083540402835291602001916109da565b820191905f5260205f20905b8154815290600101906020018083116109bd57829003601f168201915b5050505050905092915050565b5f73ffffffffffffffffffffffffffffffffffffffff168273ffffffffffffffffffffffffffffffffffffffff1603610a57575f6040517f64a0ae92000000000000000000000000000000000000000000000000000000008152600401610a4e9190612882565b60405180910390fd5b5f610a6a8383610a656115ba565b6115d3565b90508373ffffffffffffffffffffffffffffffffffffffff168173ffffffffffffffffffffffffffffffffffffffff1614610ae0578382826040517f64283d7b000000000000000000000000000000000000000000000000000000008152600401610ad7939291906130bb565b60405180910390fd5b50505050565b7f000000000000000000000000000000000000000000000000000000000000000081565b7f000000000000000000000000000000000000000000000000000000000000000081565b610b4883838360405180602001604052805f815250610fac565b505050565b6009602052805f5260405f205f915090505481565b600a602052805f5260405f205f915090505481565b5f610b81826114fb565b9050919050565b5f5f73ffffffffffffffffffffffffffffffffffffffff168273ffffffffffffffffffffffffffffffffffffffff1603610bf9575f6040517f89c62b64000000000000000000000000000000000000000000000000000000008152600401610bf09190612882565b60405180910390fd5b60035f8373ffffffffffffffffffffffffffffffffffffffff1673ffffffffffffffffffffffffffffffffffffffff1681526020019081526020015f20549050919050565b610c466117de565b610c4f5f611865565b565b610c596117de565b5f73ffffffffffffffffffffffffffffffffffffffff168173ffffffffffffffffffffffffffffffffffffffff1603610cc7576040517f08c379a0000000000000000000000000000000000000000000000000000000008152600401610cbe9061313a565b60405180910390fd5b80600d5f6101000a81548173ffffffffffffffffffffffffffffffffffffffff021916908373ffffffffffffffffffffffffffffffffffffffff16021790555050565b610d143385611928565b610d53576040517f08c379a0000000000000000000000000000000000000000000000000000000008152600401610d4a906131c8565b60405180910390fd5b5f73ffffffffffffffffffffffffffffffffffffffff168373ffffffffffffffffffffffffffffffffffffffff1603610dc1576040517f08c379a0000000000000000000000000000000000000000000000000000000008152600401610db890613230565b60405180910390fd5b5f8282905003610e06576040517f08c379a0000000000000000000000000000000000000000000000000000000008152600401610dfd90613298565b60405180910390fd5b8181600c5f8781526020019081526020015f205f8673ffffffffffffffffffffffffffffffffffffffff1673ffffffffffffffffffffffffffffffffffffffff1681526020019081526020015f209182610e61929190613460565b508273ffffffffffffffffffffffffffffffffffffffff16847fe2008fce6589f5fc55532de67b4d5ab3eddc8f8703486df3baeeef14f33242bd8484604051610eab929190613559565b60405180910390a350505050565b5f60065f9054906101000a900473ffffffffffffffffffffffffffffffffffffffff16905090565b606060018054610ef09061308b565b80601f0160208091040260200160405190810160405280929190818152602001828054610f1c9061308b565b8015610f675780601f10610f3e57610100808354040283529160200191610f67565b820191905f5260205f20905b815481529060010190602001808311610f4a57829003601f168201915b5050505050905090565b610f83610f7c6115ba565b83836119bc565b5050565b600d5f9054906101000a900473ffffffffffffffffffffffffffffffffffffffff1681565b610fb78484846109e7565b610fcb610fc26115ba565b85858585611b95565b50505050565b610fd9611d41565b610fe33386611928565b611022576040517f08c379a0000000000000000000000000000000000000000000000000000000008152600401611019906135c5565b60405180910390fd5b5f73ffffffffffffffffffffffffffffffffffffffff168673ffffffffffffffffffffffffffffffffffffffff1603611090576040517f08c379a000000000000000000000000000000000000000000000000000000000815260040161108790613653565b60405180910390fd5b5f84849050036110d5576040517f08c379a00000000000000000000000000000000000000000000000000000000081526004016110cc906136e1565b60405180910390fd5b5f828290500361111a576040517f08c379a000000000000000000000000000000000000000000000000000000000815260040161111190613749565b60405180910390fd5b611125878787611d63565b61112d611ecb565b50505050505050565b6060611141826114fb565b505f61114b611ee5565b90505f8151116111695760405180602001604052805f815250611194565b8061117384611efb565b6040516020016111849291906137a1565b6040516020818303038152906040525b915050919050565b6111a4611d41565b5f73ffffffffffffffffffffffffffffffffffffffff168473ffffffffffffffffffffffffffffffffffffffff1603611212576040517f08c379a000000000000000000000000000000000000000000000000000000000815260040161120990613834565b60405180910390fd5b5f8383905003611257576040517f08c379a000000000000000000000000000000000000000000000000000000000815260040161124e9061389c565b60405180910390fd5b5f5f1b810361129b576040517f08c379a000000000000000000000000000000000000000000000000000000000815260040161129290613904565b60405180910390fd5b5f600e5f8154809291906112ae9061394f565b9190505590508160075f8381526020019081526020015f2081905550838360085f8481526020019081526020015f2091826112ea9291906139f8565b506112f58582611fc5565b807f544e9ec8951d49ec0e2f8635d88acaa665652a3d0dcc9cef4c08bfc4239b4f5783868660405161132993929190613b00565b60405180910390a25061133a611ecb565b50505050565b5f60055f8473ffffffffffffffffffffffffffffffffffffffff1673ffffffffffffffffffffffffffffffffffffffff1681526020019081526020015f205f8373ffffffffffffffffffffffffffffffffffffffff1673ffffffffffffffffffffffffffffffffffffffff1681526020019081526020015f205f9054906101000a900460ff16905092915050565b6113d66117de565b5f73ffffffffffffffffffffffffffffffffffffffff168173ffffffffffffffffffffffffffffffffffffffff1603611446575f6040517f1e4fbdf700000000000000000000000000000000000000000000000000000000815260040161143d9190612882565b60405180910390fd5b61144f81611865565b50565b5f7f01ffc9a7000000000000000000000000000000000000000000000000000000007bffffffffffffffffffffffffffffffffffffffffffffffffffffffff1916827bffffffffffffffffffffffffffffffffffffffffffffffffffffffff1916149050919050565b5f5f73ffffffffffffffffffffffffffffffffffffffff166114dc83611fe2565b73ffffffffffffffffffffffffffffffffffffffff1614159050919050565b5f5f61150683611fe2565b90505f73ffffffffffffffffffffffffffffffffffffffff168173ffffffffffffffffffffffffffffffffffffffff160361157857826040517f7e27328900000000000000000000000000000000000000000000000000000000815260040161156f9190612a12565b60405180910390fd5b80915050919050565b5f60045f8381526020019081526020015f205f9054906101000a900473ffffffffffffffffffffffffffffffffffffffff169050919050565b5f33905090565b6115ce838383600161201b565b505050565b5f5f6115de84611fe2565b90505f73ffffffffffffffffffffffffffffffffffffffff168373ffffffffffffffffffffffffffffffffffffffff161461161f5761161e8184866121da565b5b5f73ffffffffffffffffffffffffffffffffffffffff168173ffffffffffffffffffffffffffffffffffffffff16146116aa5761165e5f855f5f61201b565b600160035f8373ffffffffffffffffffffffffffffffffffffffff1673ffffffffffffffffffffffffffffffffffffffff1681526020019081526020015f205f82825403925050819055505b5f73ffffffffffffffffffffffffffffffffffffffff168573ffffffffffffffffffffffffffffffffffffffff161461172957600160035f8773ffffffffffffffffffffffffffffffffffffffff1673ffffffffffffffffffffffffffffffffffffffff1681526020019081526020015f205f82825401925050819055505b8460025f8681526020019081526020015f205f6101000a81548173ffffffffffffffffffffffffffffffffffffffff021916908373ffffffffffffffffffffffffffffffffffffffff160217905550838573ffffffffffffffffffffffffffffffffffffffff168273ffffffffffffffffffffffffffffffffffffffff167fddf252ad1be2c89b69c2b068fc378daa952ba7f163c4a11628f55a4df523b3ef60405160405180910390a4809150509392505050565b6117e66115ba565b73ffffffffffffffffffffffffffffffffffffffff16611804610eb9565b73ffffffffffffffffffffffffffffffffffffffff1614611863576118276115ba565b6040517f118cdaa700000000000000000000000000000000000000000000000000000000815260040161185a9190612882565b60405180910390fd5b565b5f60065f9054906101000a900473ffffffffffffffffffffffffffffffffffffffff1690508160065f6101000a81548173ffffffffffffffffffffffffffffffffffffffff021916908373ffffffffffffffffffffffffffffffffffffffff1602179055508173ffffffffffffffffffffffffffffffffffffffff168173ffffffffffffffffffffffffffffffffffffffff167f8be0079c531659141344cd1fd0a4f28419497f9722a3daafe3b4186f6b6457e060405160405180910390a35050565b5f5f61193383611fe2565b90508073ffffffffffffffffffffffffffffffffffffffff168473ffffffffffffffffffffffffffffffffffffffff1614806119a257508373ffffffffffffffffffffffffffffffffffffffff1661198a8461083e565b73ffffffffffffffffffffffffffffffffffffffff16145b806119b357506119b28185611340565b5b91505092915050565b5f73ffffffffffffffffffffffffffffffffffffffff168373ffffffffffffffffffffffffffffffffffffffff1603611a2c575f6040517fa9fbf51f000000000000000000000000000000000000000000000000000000008152600401611a239190612882565b60405180910390fd5b5f73ffffffffffffffffffffffffffffffffffffffff168273ffffffffffffffffffffffffffffffffffffffff1603611a9c57816040517f5b08ba18000000000000000000000000000000000000000000000000000000008152600401611a939190612882565b60405180910390fd5b8060055f8573ffffffffffffffffffffffffffffffffffffffff1673ffffffffffffffffffffffffffffffffffffffff1681526020019081526020015f205f8473ffffffffffffffffffffffffffffffffffffffff1673ffffffffffffffffffffffffffffffffffffffff1681526020019081526020015f205f6101000a81548160ff0219169083151502179055508173ffffffffffffffffffffffffffffffffffffffff168373ffffffffffffffffffffffffffffffffffffffff167f17307eab39ab6107e8899845ad3d59bd9653f200f220920489ca2b5937696c3183604051611b8891906126fe565b60405180910390a3505050565b5f8373ffffffffffffffffffffffffffffffffffffffff163b1115611d3a578273ffffffffffffffffffffffffffffffffffffffff1663150b7a02868685856040518563ffffffff1660e01b8152600401611bf39493929190613b30565b6020604051808303815f875af1925050508015611c2e57506040513d601f19601f82011682018060405250810190611c2b9190613b8e565b60015b611caf573d805f8114611c5c576040519150601f19603f3d011682016040523d82523d5f602084013e611c61565b606091505b505f815103611ca757836040517f64a0ae92000000000000000000000000000000000000000000000000000000008152600401611c9e9190612882565b60405180910390fd5b805160208201fd5b63150b7a0260e01b7bffffffffffffffffffffffffffffffffffffffffffffffffffffffff1916817bffffffffffffffffffffffffffffffffffffffffffffffffffffffff191614611d3857836040517f64a0ae92000000000000000000000000000000000000000000000000000000008152600401611d2f9190612882565b60405180910390fd5b505b5050505050565b611d4961229d565b6002611d5b611d566122de565b612307565b5f0181905550565b5f73ffffffffffffffffffffffffffffffffffffffff168273ffffffffffffffffffffffffffffffffffffffff1603611dd3575f6040517f64a0ae92000000000000000000000000000000000000000000000000000000008152600401611dca9190612882565b60405180910390fd5b5f611ddf83835f6115d3565b90505f73ffffffffffffffffffffffffffffffffffffffff168173ffffffffffffffffffffffffffffffffffffffff1603611e5157816040517f7e273289000000000000000000000000000000000000000000000000000000008152600401611e489190612a12565b60405180910390fd5b8373ffffffffffffffffffffffffffffffffffffffff168173ffffffffffffffffffffffffffffffffffffffff1614611ec5578382826040517f64283d7b000000000000000000000000000000000000000000000000000000008152600401611ebc939291906130bb565b60405180910390fd5b50505050565b6001611edd611ed86122de565b612307565b5f0181905550565b606060405180602001604052805f815250905090565b60605f6001611f0984612310565b0190505f8167ffffffffffffffff811115611f2757611f26612b94565b5b6040519080825280601f01601f191660200182016040528015611f595781602001600182028036833780820191505090505b5090505f82602083010190505b600115611fba578080600190039150507f3031323334353637383961626364656600000000000000000000000000000000600a86061a8153600a8581611faf57611fae613bb9565b5b0494505f8503611f66575b819350505050919050565b611fde828260405180602001604052805f815250612461565b5050565b5f60025f8381526020019081526020015f205f9054906101000a900473ffffffffffffffffffffffffffffffffffffffff169050919050565b808061205357505f73ffffffffffffffffffffffffffffffffffffffff168273ffffffffffffffffffffffffffffffffffffffff1614155b15612185575f612062846114fb565b90505f73ffffffffffffffffffffffffffffffffffffffff168373ffffffffffffffffffffffffffffffffffffffff16141580156120cc57508273ffffffffffffffffffffffffffffffffffffffff168173ffffffffffffffffffffffffffffffffffffffff1614155b80156120df57506120dd8184611340565b155b1561212157826040517fa9fbf51f0000000000000000000000000000000000000000000000000000000081526004016121189190612882565b60405180910390fd5b811561218357838573ffffffffffffffffffffffffffffffffffffffff168273ffffffffffffffffffffffffffffffffffffffff167f8c5be1e5ebec7d5bd14f71427d1e84f3dd0314c0f7b2291e5b200ac8c7c3b92560405160405180910390a45b505b8360045f8581526020019081526020015f205f6101000a81548173ffffffffffffffffffffffffffffffffffffffff021916908373ffffffffffffffffffffffffffffffffffffffff16021790555050505050565b6121e5838383612484565b612298575f73ffffffffffffffffffffffffffffffffffffffff168373ffffffffffffffffffffffffffffffffffffffff160361225957806040517f7e2732890000000000000000000000000000000000000000000000000000000081526004016122509190612a12565b60405180910390fd5b81816040517f177e802f00000000000000000000000000000000000000000000000000000000815260040161228f929190613be6565b60405180910390fd5b505050565b6122a5612544565b156122dc576040517f3ee5aeb500000000000000000000000000000000000000000000000000000000815260040160405180910390fd5b565b5f7f9b779b17422d0df92223018b32b4d1fa46e071723d6817e2486d003becc55f005f1b905090565b5f819050919050565b5f5f5f90507a184f03e93ff9f4daa797ed6e38ed64bf6a1f010000000000000000831061236c577a184f03e93ff9f4daa797ed6e38ed64bf6a1f010000000000000000838161236257612361613bb9565b5b0492506040810190505b6d04ee2d6d415b85acef810000000083106123a9576d04ee2d6d415b85acef8100000000838161239f5761239e613bb9565b5b0492506020810190505b662386f26fc1000083106123d857662386f26fc1000083816123ce576123cd613bb9565b5b0492506010810190505b6305f5e1008310612401576305f5e10083816123f7576123f6613bb9565b5b0492506008810190505b612710831061242657612710838161241c5761241b613bb9565b5b0492506004810190505b60648310612449576064838161243f5761243e613bb9565b5b0492506002810190505b600a8310612458576001810190505b80915050919050565b61246b8383612560565b61247f6124766115ba565b5f858585611b95565b505050565b5f5f73ffffffffffffffffffffffffffffffffffffffff168373ffffffffffffffffffffffffffffffffffffffff161415801561253b57508273ffffffffffffffffffffffffffffffffffffffff168473ffffffffffffffffffffffffffffffffffffffff1614806124fc57506124fb8484611340565b5b8061253a57508273ffffffffffffffffffffffffffffffffffffffff1661252283611581565b73ffffffffffffffffffffffffffffffffffffffff16145b5b90509392505050565b5f60026125576125526122de565b612307565b5f015414905090565b5f73ffffffffffffffffffffffffffffffffffffffff168273ffffffffffffffffffffffffffffffffffffffff16036125d0575f6040517f64a0ae920000000000000000000000000000000000000000000000000000000081526004016125c79190612882565b60405180910390fd5b5f6125dc83835f6115d3565b90505f73ffffffffffffffffffffffffffffffffffffffff168173ffffffffffffffffffffffffffffffffffffffff161461264e575f6040517f73c6ac6e0000000000000000000000000000000000000000000000000000000081526004016126459190612882565b60405180910390fd5b505050565b5f604051905090565b5f5ffd5b5f5ffd5b5f7fffffffff0000000000000000000000000000000000000000000000000000000082169050919050565b61269881612664565b81146126a2575f5ffd5b50565b5f813590506126b38161268f565b92915050565b5f602082840312156126ce576126cd61265c565b5b5f6126db848285016126a5565b91505092915050565b5f8115159050919050565b6126f8816126e4565b82525050565b5f6020820190506127115f8301846126ef565b92915050565b5f819050919050565b61272981612717565b8114612733575f5ffd5b50565b5f8135905061274481612720565b92915050565b5f5f604083850312156127605761275f61265c565b5b5f61276d85828601612736565b925050602061277e85828601612736565b9150509250929050565b5f81519050919050565b5f82825260208201905092915050565b8281835e5f83830152505050565b5f601f19601f8301169050919050565b5f6127ca82612788565b6127d48185612792565b93506127e48185602086016127a2565b6127ed816127b0565b840191505092915050565b5f6020820190508181035f83015261281081846127c0565b905092915050565b5f6020828403121561282d5761282c61265c565b5b5f61283a84828501612736565b91505092915050565b5f73ffffffffffffffffffffffffffffffffffffffff82169050919050565b5f61286c82612843565b9050919050565b61287c81612862565b82525050565b5f6020820190506128955f830184612873565b92915050565b6128a481612862565b81146128ae575f5ffd5b50565b5f813590506128bf8161289b565b92915050565b5f5f604083850312156128db576128da61265c565b5b5f6128e8858286016128b1565b92505060206128f985828601612736565b9150509250929050565b5f5f604083850312156129195761291861265c565b5b5f61292685828601612736565b9250506020612937858286016128b1565b9150509250929050565b5f81519050919050565b5f82825260208201905092915050565b5f61296582612941565b61296f818561294b565b935061297f8185602086016127a2565b612988816127b0565b840191505092915050565b5f6020820190508181035f8301526129ab818461295b565b905092915050565b5f5f5f606084860312156129ca576129c961265c565b5b5f6129d7868287016128b1565b93505060206129e8868287016128b1565b92505060406129f986828701612736565b9150509250925092565b612a0c81612717565b82525050565b5f602082019050612a255f830184612a03565b92915050565b5f60208284031215612a4057612a3f61265c565b5b5f612a4d848285016128b1565b91505092915050565b5f5ffd5b5f5ffd5b5f5ffd5b5f5f83601f840112612a7757612a76612a56565b5b8235905067ffffffffffffffff811115612a9457612a93612a5a565b5b602083019150836001820283011115612ab057612aaf612a5e565b5b9250929050565b5f5f5f5f60608587031215612acf57612ace61265c565b5b5f612adc87828801612736565b9450506020612aed878288016128b1565b935050604085013567ffffffffffffffff811115612b0e57612b0d612660565b5b612b1a87828801612a62565b925092505092959194509250565b612b31816126e4565b8114612b3b575f5ffd5b50565b5f81359050612b4c81612b28565b92915050565b5f5f60408385031215612b6857612b6761265c565b5b5f612b75858286016128b1565b9250506020612b8685828601612b3e565b9150509250929050565b5f5ffd5b7f4e487b71000000000000000000000000000000000000000000000000000000005f52604160045260245ffd5b612bca826127b0565b810181811067ffffffffffffffff82111715612be957612be8612b94565b5b80604052505050565b5f612bfb612653565b9050612c078282612bc1565b919050565b5f67ffffffffffffffff821115612c2657612c25612b94565b5b612c2f826127b0565b9050602081019050919050565b828183375f83830152505050565b5f612c5c612c5784612c0c565b612bf2565b905082815260208101848484011115612c7857612c77612b90565b5b612c83848285612c3c565b509392505050565b5f82601f830112612c9f57612c9e612a56565b5b8135612caf848260208601612c4a565b91505092915050565b5f5f5f5f60808587031215612cd057612ccf61265c565b5b5f612cdd878288016128b1565b9450506020612cee878288016128b1565b9350506040612cff87828801612736565b925050606085013567ffffffffffffffff811115612d2057612d1f612660565b5b612d2c87828801612c8b565b91505092959194509250565b5f5f5f5f5f5f5f60a0888a031215612d5357612d5261265c565b5b5f612d608a828b016128b1565b9750506020612d718a828b016128b1565b9650506040612d828a828b01612736565b955050606088013567ffffffffffffffff811115612da357612da2612660565b5b612daf8a828b01612a62565b9450945050608088013567ffffffffffffffff811115612dd257612dd1612660565b5b612dde8a828b01612a62565b925092505092959891949750929550565b5f5f83601f840112612e0457612e03612a56565b5b8235905067ffffffffffffffff811115612e2157612e20612a5a565b5b602083019150836001820283011115612e3d57612e3c612a5e565b5b9250929050565b5f819050919050565b612e5681612e44565b8114612e60575f5ffd5b50565b5f81359050612e7181612e4d565b92915050565b5f5f5f5f60608587031215612e8f57612e8e61265c565b5b5f612e9c878288016128b1565b945050602085013567ffffffffffffffff811115612ebd57612ebc612660565b5b612ec987828801612def565b93509350506040612edc87828801612e63565b91505092959194509250565b5f5f60408385031215612efe57612efd61265c565b5b5f612f0b858286016128b1565b9250506020612f1c858286016128b1565b9150509250929050565b7f4f726269747452656769737472793a206b6565706572206f6e6c7900000000005f82015250565b5f612f5a601b83612792565b9150612f6582612f26565b602082019050919050565b5f6020820190508181035f830152612f8781612f4e565b9050919050565b7f4f726269747452656769737472793a20746f6b656e206d697373696e670000005f82015250565b5f612fc2601d83612792565b9150612fcd82612f8e565b602082019050919050565b5f6020820190508181035f830152612fef81612fb6565b9050919050565b7f4f726269747452656769737472793a2073636f726520746f6f206869676800005f82015250565b5f61302a601e83612792565b915061303582612ff6565b602082019050919050565b5f6020820190508181035f8301526130578161301e565b9050919050565b7f4e487b71000000000000000000000000000000000000000000000000000000005f52602260045260245ffd5b5f60028204905060018216806130a257607f821691505b6020821081036130b5576130b461305e565b5b50919050565b5f6060820190506130ce5f830186612873565b6130db6020830185612a03565b6130e86040830184612873565b949350505050565b7f4f726269747452656769737472793a207a65726f206b656570657200000000005f82015250565b5f613124601b83612792565b915061312f826130f0565b602082019050919050565b5f6020820190508181035f83015261315181613118565b9050919050565b7f4f726269747452656769737472793a206e6f74206f776e6572206e6f722061705f8201527f70726f7665640000000000000000000000000000000000000000000000000000602082015250565b5f6131b2602683612792565b91506131bd82613158565b604082019050919050565b5f6020820190508181035f8301526131df816131a6565b9050919050565b7f4f726269747452656769737472793a207a65726f206578656375746f720000005f82015250565b5f61321a601d83612792565b9150613225826131e6565b602082019050919050565b5f6020820190508181035f8301526132478161320e565b9050919050565b7f4f726269747452656769737472793a20656d707479207065726d7300000000005f82015250565b5f613282601b83612792565b915061328d8261324e565b602082019050919050565b5f6020820190508181035f8301526132af81613276565b9050919050565b5f82905092915050565b5f819050815f5260205f209050919050565b5f6020601f8301049050919050565b5f82821b905092915050565b5f6008830261331c7fffffffffffffffffffffffffffffffffffffffffffffffffffffffffffffffff826132e1565b61332686836132e1565b95508019841693508086168417925050509392505050565b5f819050919050565b5f61336161335c61335784612717565b61333e565b612717565b9050919050565b5f819050919050565b61337a83613347565b61338e61338682613368565b8484546132ed565b825550505050565b5f5f905090565b6133a5613396565b6133b0818484613371565b505050565b5b818110156133d3576133c85f8261339d565b6001810190506133b6565b5050565b601f821115613418576133e9816132c0565b6133f2846132d2565b81016020851015613401578190505b61341561340d856132d2565b8301826133b5565b50505b505050565b5f82821c905092915050565b5f6134385f198460080261341d565b1980831691505092915050565b5f6134508383613429565b9150826002028217905092915050565b61346a83836132b6565b67ffffffffffffffff81111561348357613482612b94565b5b61348d825461308b565b6134988282856133d7565b5f601f8311600181146134c5575f84156134b3578287013590505b6134bd8582613445565b865550613524565b601f1984166134d3866132c0565b5f5b828110156134fa578489013582556001820191506020850194506020810190506134d5565b868310156135175784890135613513601f891682613429565b8355505b6001600288020188555050505b50505050505050565b5f613538838561294b565b9350613545838584612c3c565b61354e836127b0565b840190509392505050565b5f6020820190508181035f83015261357281848661352d565b90509392505050565b7f4f726269747452656769737472793a206e6f7420617070726f766564000000005f82015250565b5f6135af601c83612792565b91506135ba8261357b565b602082019050919050565b5f6020820190508181035f8301526135dc816135a3565b9050919050565b7f4f726269747452656769737472793a207472616e7366657220746f207a65726f5f8201527f2061646472657373000000000000000000000000000000000000000000000000602082015250565b5f61363d602883612792565b9150613648826135e3565b604082019050919050565b5f6020820190508181035f83015261366a81613631565b9050919050565b7f4f726269747452656769737472793a206d697373696e67207365616c6564206b5f8201527f6579000000000000000000000000000000000000000000000000000000000000602082015250565b5f6136cb602283612792565b91506136d682613671565b604082019050919050565b5f6020820190508181035f8301526136f8816136bf565b9050919050565b7f4f726269747452656769737472793a206d697373696e672070726f6f660000005f82015250565b5f613733601d83612792565b915061373e826136ff565b602082019050919050565b5f6020820190508181035f83015261376081613727565b9050919050565b5f81905092915050565b5f61377b82612788565b6137858185613767565b93506137958185602086016127a2565b80840191505092915050565b5f6137ac8285613771565b91506137b88284613771565b91508190509392505050565b7f4f726269747452656769737472793a206d696e7420746f207a65726f206164645f8201527f7265737300000000000000000000000000000000000000000000000000000000602082015250565b5f61381e602483612792565b9150613829826137c4565b604082019050919050565b5f6020820190508181035f83015261384b81613812565b9050919050565b7f4f726269747452656769737472793a20656d70747920555249000000000000005f82015250565b5f613886601983612792565b915061389182613852565b602082019050919050565b5f6020820190508181035f8301526138b38161387a565b9050919050565b7f4f726269747452656769737472793a20656d70747920686173680000000000005f82015250565b5f6138ee601a83612792565b91506138f9826138ba565b602082019050919050565b5f6020820190508181035f83015261391b816138e2565b9050919050565b7f4e487b71000000000000000000000000000000000000000000000000000000005f52601160045260245ffd5b5f61395982612717565b91507fffffffffffffffffffffffffffffffffffffffffffffffffffffffffffffffff820361398b5761398a613922565b5b600182019050919050565b5f82905092915050565b5f819050815f5260205f209050919050565b601f8211156139f3576139c4816139a0565b6139cd846132d2565b810160208510156139dc578190505b6139f06139e8856132d2565b8301826133b5565b50505b505050565b613a028383613996565b67ffffffffffffffff811115613a1b57613a1a612b94565b5b613a25825461308b565b613a308282856139b2565b5f601f831160018114613a5d575f8415613a4b578287013590505b613a558582613445565b865550613abc565b601f198416613a6b866139a0565b5f5b82811015613a9257848901358255600182019150602085019450602081019050613a6d565b86831015613aaf5784890135613aab601f891682613429565b8355505b6001600288020188555050505b50505050505050565b613ace81612e44565b82525050565b5f613adf8385612792565b9350613aec838584612c3c565b613af5836127b0565b840190509392505050565b5f604082019050613b135f830186613ac5565b8181036020830152613b26818486613ad4565b9050949350505050565b5f608082019050613b435f830187612873565b613b506020830186612873565b613b5d6040830185612a03565b8181036060830152613b6f818461295b565b905095945050505050565b5f81519050613b888161268f565b92915050565b5f60208284031215613ba357613ba261265c565b5b5f613bb084828501613b7a565b91505092915050565b7f4e487b71000000000000000000000000000000000000000000000000000000005f52601260045260245ffd5b5f604082019050613bf95f830185612873565b613c066020830184612a03565b939250505056fea26469706673582212203e2e29b02f122304cbdb35096e6a34695d4a70d9a67b041077572ae8d7aa697564736f6c634300081c0033",
  "linkReferences": {},
  "deployedLinkReferences": {},
  "immutableReferences": {
    "7771": [
      {
        "length": 32,
        "start": 2792
      }
    ],
    "7773": [
      {
        "length": 32,
        "start": 2828
      }
    ]
  },
  "inputSourceName": "project/contracts/OrbittRegistry.sol",
  "buildInfoId": "solc-0_8_28-2ea3b0deb3b77dbff792cb10fdfb2d832dd0a47d"
}